{
  "_format": "hh-sol-artifact-1",
  "contractName": "Domains",
  "sourceName": "contracts/Domains.sol",
  "abi": [
    {
      "inputs": [
        {
          "internalType": "string",
          "name": "_tld",
          "type": "string"
        }
      ],
      "stateMutability": "payable",
      "type": "constructor"
    },
    {
      "anonymous": false,
      "inputs": [
        {
          "indexed": true,
          "internalType": "address",
          "name": "owner",
          "type": "address"
        },
        {
          "indexed": true,
          "internalType": "address",
          "name": "approved",
          "type": "address"
        },
        {
          "indexed": true,
          "internalType": "uint256",
          "name": "tokenId",
          "type": "uint256"
        }
      ],
      "name": "Approval",
      "type": "event"
    },
    {
      "anonymous": false,
      "inputs": [
        {
          "indexed": true,
          "internalType": "address",
          "name": "owner",
          "type": "address"
        },
        {
          "indexed": true,
          "internalType": "address",
          "name": "operator",
          "type": "address"
        },
        {
          "indexed": false,
          "internalType": "bool",
          "name": "approved",
          "type": "bool"
        }
      ],
      "name": "ApprovalForAll",
      "type": "event"
    },
    {
      "anonymous": false,
      "inputs": [
        {
          "indexed": true,
          "internalType": "uint256",
          "name": "_tokenId",
          "type": "uint256"
        }
      ],
      "name": "DomainRegistered",
      "type": "event"
    },
    {
      "anonymous": false,
      "inputs": [
        {
          "indexed": true,
          "internalType": "address",
          "name": "from",
          "type": "address"
        },
        {
          "indexed": true,
          "internalType": "address",
          "name": "to",
          "type": "address"
        },
        {
          "indexed": true,
          "internalType": "uint256",
          "name": "tokenId",
          "type": "uint256"
        }
      ],
      "name": "Transfer",
      "type": "event"
    },
    {
      "inputs": [
        {
          "internalType": "address",
          "name": "to",
          "type": "address"
        },
        {
          "internalType": "uint256",
          "name": "tokenId",
          "type": "uint256"
        }
      ],
      "name": "approve",
      "outputs": [],
      "stateMutability": "nonpayable",
      "type": "function"
    },
    {
      "inputs": [
        {
          "internalType": "address",
          "name": "owner",
          "type": "address"
        }
      ],
      "name": "balanceOf",
      "outputs": [
        {
          "internalType": "uint256",
          "name": "",
          "type": "uint256"
        }
      ],
      "stateMutability": "view",
      "type": "function"
    },
    {
      "inputs": [
        {
          "internalType": "string",
          "name": "name",
          "type": "string"
        }
      ],
      "name": "domainIsRegistered",
      "outputs": [
        {
          "internalType": "bool",
          "name": "",
          "type": "bool"
        }
      ],
      "stateMutability": "view",
      "type": "function"
    },
    {
      "inputs": [
        {
          "internalType": "string",
          "name": "name",
          "type": "string"
        }
      ],
      "name": "getAddress",
      "outputs": [
        {
          "internalType": "address",
          "name": "",
          "type": "address"
        }
      ],
      "stateMutability": "view",
      "type": "function"
    },
    {
      "inputs": [],
      "name": "getAllRecords",
      "outputs": [
        {
          "components": [
            {
              "internalType": "string",
              "name": "name",
              "type": "string"
            },
            {
              "internalType": "address",
              "name": "addr",
              "type": "address"
            },
            {
              "internalType": "string",
              "name": "website",
              "type": "string"
            },
            {
              "internalType": "string",
              "name": "email",
              "type": "string"
            },
            {
              "internalType": "string",
              "name": "twitter",
              "type": "string"
            },
            {
              "internalType": "string",
              "name": "github",
              "type": "string"
            },
            {
              "internalType": "uint256",
              "name": "tokenId",
              "type": "uint256"
            }
          ],
          "internalType": "struct Domains.DomainRecord[]",
          "name": "",
          "type": "tuple[]"
        }
      ],
      "stateMutability": "view",
      "type": "function"
    },
    {
      "inputs": [
        {
          "internalType": "uint256",
          "name": "tokenId",
          "type": "uint256"
        }
      ],
      "name": "getApproved",
      "outputs": [
        {
          "internalType": "address",
          "name": "",
          "type": "address"
        }
      ],
      "stateMutability": "view",
      "type": "function"
    },
    {
      "inputs": [
        {
          "internalType": "string",
          "name": "name",
          "type": "string"
        },
        {
          "internalType": "uint256",
          "name": "newRecordId",
          "type": "uint256"
        },
        {
          "internalType": "string",
          "name": "website",
          "type": "string"
        },
        {
          "internalType": "string",
          "name": "email",
          "type": "string"
        },
        {
          "internalType": "string",
          "name": "twitter",
          "type": "string"
        },
        {
          "internalType": "string",
          "name": "github",
          "type": "string"
        }
      ],
      "name": "getJsonMetadata",
      "outputs": [
        {
          "internalType": "string",
          "name": "",
          "type": "string"
        }
      ],
      "stateMutability": "view",
      "type": "function"
    },
    {
      "inputs": [
        {
          "internalType": "string",
          "name": "name",
          "type": "string"
        }
      ],
      "name": "getRecord",
      "outputs": [
        {
          "components": [
            {
              "internalType": "string",
              "name": "name",
              "type": "string"
            },
            {
              "internalType": "address",
              "name": "addr",
              "type": "address"
            },
            {
              "internalType": "string",
              "name": "website",
              "type": "string"
            },
            {
              "internalType": "string",
              "name": "email",
              "type": "string"
            },
            {
              "internalType": "string",
              "name": "twitter",
              "type": "string"
            },
            {
              "internalType": "string",
              "name": "github",
              "type": "string"
            },
            {
              "internalType": "uint256",
              "name": "tokenId",
              "type": "uint256"
            }
          ],
          "internalType": "struct Domains.DomainRecord",
          "name": "",
          "type": "tuple"
        }
      ],
      "stateMutability": "view",
      "type": "function"
    },
    {
      "inputs": [
        {
          "internalType": "address",
          "name": "owner",
          "type": "address"
        },
        {
          "internalType": "address",
          "name": "operator",
          "type": "address"
        }
      ],
      "name": "isApprovedForAll",
      "outputs": [
        {
          "internalType": "bool",
          "name": "",
          "type": "bool"
        }
      ],
      "stateMutability": "view",
      "type": "function"
    },
    {
      "inputs": [],
      "name": "name",
      "outputs": [
        {
          "internalType": "string",
          "name": "",
          "type": "string"
        }
      ],
      "stateMutability": "view",
      "type": "function"
    },
    {
      "inputs": [
        {
          "internalType": "uint256",
          "name": "tokenId",
          "type": "uint256"
        }
      ],
      "name": "ownerOf",
      "outputs": [
        {
          "internalType": "address",
          "name": "",
          "type": "address"
        }
      ],
      "stateMutability": "view",
      "type": "function"
    },
    {
      "inputs": [
        {
          "internalType": "string",
          "name": "name",
          "type": "string"
        }
      ],
      "name": "price",
      "outputs": [
        {
          "internalType": "uint256",
          "name": "",
          "type": "uint256"
        }
      ],
      "stateMutability": "pure",
      "type": "function"
    },
    {
      "inputs": [
        {
          "internalType": "string",
          "name": "nameToRegister",
          "type": "string"
        }
      ],
      "name": "register",
      "outputs": [],
      "stateMutability": "payable",
      "type": "function"
    },
    {
      "inputs": [
        {
          "internalType": "address",
          "name": "from",
          "type": "address"
        },
        {
          "internalType": "address",
          "name": "to",
          "type": "address"
        },
        {
          "internalType": "uint256",
          "name": "tokenId",
          "type": "uint256"
        }
      ],
      "name": "safeTransferFrom",
      "outputs": [],
      "stateMutability": "nonpayable",
      "type": "function"
    },
    {
      "inputs": [
        {
          "internalType": "address",
          "name": "from",
          "type": "address"
        },
        {
          "internalType": "address",
          "name": "to",
          "type": "address"
        },
        {
          "internalType": "uint256",
          "name": "tokenId",
          "type": "uint256"
        },
        {
          "internalType": "bytes",
          "name": "data",
          "type": "bytes"
        }
      ],
      "name": "safeTransferFrom",
      "outputs": [],
      "stateMutability": "nonpayable",
      "type": "function"
    },
    {
      "inputs": [
        {
          "internalType": "address",
          "name": "operator",
          "type": "address"
        },
        {
          "internalType": "bool",
          "name": "approved",
          "type": "bool"
        }
      ],
      "name": "setApprovalForAll",
      "outputs": [],
      "stateMutability": "nonpayable",
      "type": "function"
    },
    {
      "inputs": [
        {
          "internalType": "string",
          "name": "name",
          "type": "string"
        },
        {
          "internalType": "string",
          "name": "_website",
          "type": "string"
        },
        {
          "internalType": "string",
          "name": "_email",
          "type": "string"
        },
        {
          "internalType": "string",
          "name": "_twitter",
          "type": "string"
        },
        {
          "internalType": "string",
          "name": "_github",
          "type": "string"
        }
      ],
      "name": "setRecord",
      "outputs": [],
      "stateMutability": "nonpayable",
      "type": "function"
    },
    {
      "inputs": [
        {
          "internalType": "bytes4",
          "name": "interfaceId",
          "type": "bytes4"
        }
      ],
      "name": "supportsInterface",
      "outputs": [
        {
          "internalType": "bool",
          "name": "",
          "type": "bool"
        }
      ],
      "stateMutability": "view",
      "type": "function"
    },
    {
      "inputs": [],
      "name": "symbol",
      "outputs": [
        {
          "internalType": "string",
          "name": "",
          "type": "string"
        }
      ],
      "stateMutability": "view",
      "type": "function"
    },
    {
      "inputs": [],
      "name": "tld",
      "outputs": [
        {
          "internalType": "string",
          "name": "",
          "type": "string"
        }
      ],
      "stateMutability": "view",
      "type": "function"
    },
    {
      "inputs": [
        {
          "internalType": "uint256",
          "name": "tokenId",
          "type": "uint256"
        }
      ],
      "name": "tokenURI",
      "outputs": [
        {
          "internalType": "string",
          "name": "",
          "type": "string"
        }
      ],
      "stateMutability": "view",
      "type": "function"
    },
    {
      "inputs": [
        {
          "internalType": "address",
          "name": "from",
          "type": "address"
        },
        {
          "internalType": "address",
          "name": "to",
          "type": "address"
        },
        {
          "internalType": "uint256",
          "name": "tokenId",
          "type": "uint256"
        }
      ],
      "name": "transferFrom",
      "outputs": [],
      "stateMutability": "nonpayable",
      "type": "function"
    }
  ],
  "bytecode": "0x6080604052604051806108a0016040528061086d81526020016200651261086d9139600b90805190602001906200003892919062000287565b506040518060400160405280600d81526020017f3c2f746578743e3c2f7376673e00000000000000000000000000000000000000815250600c90805190602001906200008692919062000287565b5060405162006d7f38038062006d7f8339818101604052810190620000ac9190620004d4565b6040518060400160405280600c81526020017f4c6f76656c79204e616d657300000000000000000000000000000000000000008152506040518060400160405280600481526020017f4c4f56450000000000000000000000000000000000000000000000000000000081525081600090805190602001906200013092919062000287565b5080600190805190602001906200014992919062000287565b50505080600890805190602001906200016492919062000287565b50620001b16040518060400160405280601881526020017f2573206e616d652073657276696365206465706c6f796564000000000000000081525082620001b860201b620026381760201c565b5062000622565b6200025a8282604051602401620001d192919062000582565b6040516020818303038152906040527f4b5c4277000000000000000000000000000000000000000000000000000000007bffffffffffffffffffffffffffffffffffffffffffffffffffffffff19166020820180517bffffffffffffffffffffffffffffffffffffffffffffffffffffffff83818316178352505050506200025e60201b60201c565b5050565b60008151905060006a636f6e736f6c652e6c6f679050602083016000808483855afa5050505050565b8280546200029590620005ec565b90600052602060002090601f016020900481019282620002b9576000855562000305565b82601f10620002d457805160ff191683800117855562000305565b8280016001018555821562000305579182015b8281111562000304578251825591602001919060010190620002e7565b5b50905062000314919062000318565b5090565b5b808211156200033357600081600090555060010162000319565b5090565b6000604051905090565b600080fd5b600080fd5b600080fd5b600080fd5b6000601f19601f8301169050919050565b7f4e487b7100000000000000000000000000000000000000000000000000000000600052604160045260246000fd5b620003a08262000355565b810181811067ffffffffffffffff82111715620003c257620003c162000366565b5b80604052505050565b6000620003d762000337565b9050620003e5828262000395565b919050565b600067ffffffffffffffff82111562000408576200040762000366565b5b620004138262000355565b9050602081019050919050565b60005b838110156200044057808201518184015260208101905062000423565b8381111562000450576000848401525b50505050565b60006200046d6200046784620003ea565b620003cb565b9050828152602081018484840111156200048c576200048b62000350565b5b6200049984828562000420565b509392505050565b600082601f830112620004b957620004b86200034b565b5b8151620004cb84826020860162000456565b91505092915050565b600060208284031215620004ed57620004ec62000341565b5b600082015167ffffffffffffffff8111156200050e576200050d62000346565b5b6200051c84828501620004a1565b91505092915050565b600081519050919050565b600082825260208201905092915050565b60006200054e8262000525565b6200055a818562000530565b93506200056c81856020860162000420565b620005778162000355565b840191505092915050565b600060408201905081810360008301526200059e818562000541565b90508181036020830152620005b4818462000541565b90509392505050565b7f4e487b7100000000000000000000000000000000000000000000000000000000600052602260045260246000fd5b600060028204905060018216806200060557607f821691505b602082108114156200061c576200061b620005bd565b5b50919050565b615ee080620006326000396000f3fe6080604052600436106101345760003560e01c806395d89b41116100ab578063bc9a853b1161006f578063bc9a853b14610449578063bf40fac114610486578063c87b56dd146104c3578063e985e9c514610500578063f2c298be1461053d578063fe2c61981461055957610134565b806395d89b4114610364578063a22cb4651461038f578063a7f9fe72146103b8578063ab40bc02146103e3578063b88d4fde1461042057610134565b806311dd8845116100fd57806311dd88451461023057806323b872dd1461026d5780632d5514321461029657806342842e0e146102c15780636352211e146102ea57806370a082311461032757610134565b8062b22bc71461013957806301ffc9a71461016257806306fdde031461019f578063081812fc146101ca578063095ea7b314610207575b600080fd5b34801561014557600080fd5b50610160600480360381019061015b9190613cbc565b610596565b005b34801561016e57600080fd5b5061018960048036038101906101849190613e31565b610e1f565b6040516101969190613e79565b60405180910390f35b3480156101ab57600080fd5b506101b4610f01565b6040516101c19190613f2d565b60405180910390f35b3480156101d657600080fd5b506101f160048036038101906101ec9190613f85565b610f93565b6040516101fe9190613ff3565b60405180910390f35b34801561021357600080fd5b5061022e6004803603810190610229919061403a565b610fd9565b005b34801561023c57600080fd5b506102576004803603810190610252919061407a565b6110f1565b60405161026491906141e7565b60405180910390f35b34801561027957600080fd5b50610294600480360381019061028f9190614209565b611514565b005b3480156102a257600080fd5b506102ab611574565b6040516102b89190613f2d565b60405180910390f35b3480156102cd57600080fd5b506102e860048036038101906102e39190614209565b611602565b005b3480156102f657600080fd5b50610311600480360381019061030c9190613f85565b611622565b60405161031e9190613ff3565b60405180910390f35b34801561033357600080fd5b5061034e6004803603810190610349919061425c565b6116a9565b60405161035b9190614298565b60405180910390f35b34801561037057600080fd5b50610379611761565b6040516103869190613f2d565b60405180910390f35b34801561039b57600080fd5b506103b660048036038101906103b191906142df565b6117f3565b005b3480156103c457600080fd5b506103cd611809565b6040516103da9190614499565b60405180910390f35b3480156103ef57600080fd5b5061040a600480360381019061040591906145eb565b611ba2565b6040516104179190613f2d565b60405180910390f35b34801561042c57600080fd5b50610447600480360381019061044291906147ab565b611db9565b005b34801561045557600080fd5b50610470600480360381019061046b919061482e565b611e1b565b60405161047d9190613e79565b60405180910390f35b34801561049257600080fd5b506104ad60048036038101906104a8919061407a565b611ea0565b6040516104ba9190613ff3565b60405180910390f35b3480156104cf57600080fd5b506104ea60048036038101906104e59190613f85565b611f9c565b6040516104f79190613f2d565b60405180910390f35b34801561050c57600080fd5b5061052760048036038101906105229190614877565b6120af565b6040516105349190613e79565b60405180910390f35b6105576004803603810190610552919061407a565b612143565b005b34801561056557600080fd5b50610580600480360381019061057b919061407a565b61255f565b60405161058d9190614298565b60405180910390f35b6105e38a8a8080601f016020809104026020016040519081016040528093929190818152602001838380828437600081840152601f19601f82011690508083019250505050505050611e1b565b610622576040517f08c379a000000000000000000000000000000000000000000000000000000000815260040161061990614903565b60405180910390fd5b60006009600a8c8c604051610638929190614953565b908152602001604051809103902054815481106106585761065761496c565b5b90600052602060002090600702016040518060e0016040529081600082018054610681906149ca565b80601f01602080910402602001604051908101604052809291908181526020018280546106ad906149ca565b80156106fa5780601f106106cf576101008083540402835291602001916106fa565b820191906000526020600020905b8154815290600101906020018083116106dd57829003601f168201915b505050505081526020016001820160009054906101000a900473ffffffffffffffffffffffffffffffffffffffff1673ffffffffffffffffffffffffffffffffffffffff1673ffffffffffffffffffffffffffffffffffffffff168152602001600282018054610769906149ca565b80601f0160208091040260200160405190810160405280929190818152602001828054610795906149ca565b80156107e25780601f106107b7576101008083540402835291602001916107e2565b820191906000526020600020905b8154815290600101906020018083116107c557829003601f168201915b505050505081526020016003820180546107fb906149ca565b80601f0160208091040260200160405190810160405280929190818152602001828054610827906149ca565b80156108745780601f1061084957610100808354040283529160200191610874565b820191906000526020600020905b81548152906001019060200180831161085757829003601f168201915b5050505050815260200160048201805461088d906149ca565b80601f01602080910402602001604051908101604052809291908181526020018280546108b9906149ca565b80156109065780601f106108db57610100808354040283529160200191610906565b820191906000526020600020905b8154815290600101906020018083116108e957829003601f168201915b5050505050815260200160058201805461091f906149ca565b80601f016020809104026020016040519081016040528092919081815260200182805461094b906149ca565b80156109985780601f1061096d57610100808354040283529160200191610998565b820191906000526020600020905b81548152906001019060200180831161097b57829003601f168201915b5050505050815260200160068201548152505090506009600a8c8c6040516109c1929190614953565b908152602001604051809103902054815481106109e1576109e061496c565b5b906000526020600020906007020160010160009054906101000a900473ffffffffffffffffffffffffffffffffffffffff1673ffffffffffffffffffffffffffffffffffffffff163373ffffffffffffffffffffffffffffffffffffffff1614610a80576040517f08c379a0000000000000000000000000000000000000000000000000000000008152600401610a7790614a6e565b60405180910390fd5b88888080601f016020809104026020016040519081016040528093929190818152602001838380828437600081840152601f19601f82011690508083019250505050505050816040018190525086868080601f016020809104026020016040519081016040528093929190818152602001838380828437600081840152601f19601f82011690508083019250505050505050816060018190525084848080601f016020809104026020016040519081016040528093929190818152602001838380828437600081840152601f19601f82011690508083019250505050505050816080018190525082828080601f016020809104026020016040519081016040528093929190818152602001838380828437600081840152601f19601f820116905080830192505050505050508160a00181905250806009600a8d8d604051610bc9929190614953565b90815260200160405180910390205481548110610be957610be861496c565b5b90600052602060002090600702016000820151816000019080519060200190610c13929190613b4d565b5060208201518160010160006101000a81548173ffffffffffffffffffffffffffffffffffffffff021916908373ffffffffffffffffffffffffffffffffffffffff1602179055506040820151816002019080519060200190610c77929190613b4d565b506060820151816003019080519060200190610c94929190613b4d565b506080820151816004019080519060200190610cb1929190613b4d565b5060a0820151816005019080519060200190610cce929190613b4d565b5060c082015181600601559050506000610e018c8c8460c001518d8d8080601f016020809104026020016040519081016040528093929190818152602001838380828437600081840152601f19601f820116905080830192505050505050508c8c8080601f016020809104026020016040519081016040528093929190818152602001838380828437600081840152601f19601f820116905080830192505050505050508b8b8080601f016020809104026020016040519081016040528093929190818152602001838380828437600081840152601f19601f820116905080830192505050505050508a8a8080601f016020809104026020016040519081016040528093929190818152602001838380828437600081840152601f19601f82011690508083019250505050505050611ba2565b9050610e118260c00151826126d4565b505050505050505050505050565b60007f80ac58cd000000000000000000000000000000000000000000000000000000007bffffffffffffffffffffffffffffffffffffffffffffffffffffffff1916827bffffffffffffffffffffffffffffffffffffffffffffffffffffffff19161480610eea57507f5b5e139f000000000000000000000000000000000000000000000000000000007bffffffffffffffffffffffffffffffffffffffffffffffffffffffff1916827bffffffffffffffffffffffffffffffffffffffffffffffffffffffff1916145b80610efa5750610ef982612748565b5b9050919050565b606060008054610f10906149ca565b80601f0160208091040260200160405190810160405280929190818152602001828054610f3c906149ca565b8015610f895780601f10610f5e57610100808354040283529160200191610f89565b820191906000526020600020905b815481529060010190602001808311610f6c57829003601f168201915b5050505050905090565b6000610f9e826127b2565b6004600083815260200190815260200160002060009054906101000a900473ffffffffffffffffffffffffffffffffffffffff169050919050565b6000610fe482611622565b90508073ffffffffffffffffffffffffffffffffffffffff168373ffffffffffffffffffffffffffffffffffffffff161415611055576040517f08c379a000000000000000000000000000000000000000000000000000000000815260040161104c90614b00565b60405180910390fd5b8073ffffffffffffffffffffffffffffffffffffffff166110746127fd565b73ffffffffffffffffffffffffffffffffffffffff1614806110a357506110a28161109d6127fd565b6120af565b5b6110e2576040517f08c379a00000000000000000000000000000000000000000000000000000000081526004016110d990614b92565b60405180910390fd5b6110ec8383612805565b505050565b6110f9613bd3565b61114683838080601f016020809104026020016040519081016040528093929190818152602001838380828437600081840152601f19601f82011690508083019250505050505050611e1b565b611185576040517f08c379a000000000000000000000000000000000000000000000000000000000815260040161117c90614903565b60405180910390fd5b6009600a8484604051611199929190614953565b908152602001604051809103902054815481106111b9576111b861496c565b5b90600052602060002090600702016040518060e00160405290816000820180546111e2906149ca565b80601f016020809104026020016040519081016040528092919081815260200182805461120e906149ca565b801561125b5780601f106112305761010080835404028352916020019161125b565b820191906000526020600020905b81548152906001019060200180831161123e57829003601f168201915b505050505081526020016001820160009054906101000a900473ffffffffffffffffffffffffffffffffffffffff1673ffffffffffffffffffffffffffffffffffffffff1673ffffffffffffffffffffffffffffffffffffffff1681526020016002820180546112ca906149ca565b80601f01602080910402602001604051908101604052809291908181526020018280546112f6906149ca565b80156113435780601f1061131857610100808354040283529160200191611343565b820191906000526020600020905b81548152906001019060200180831161132657829003601f168201915b5050505050815260200160038201805461135c906149ca565b80601f0160208091040260200160405190810160405280929190818152602001828054611388906149ca565b80156113d55780601f106113aa576101008083540402835291602001916113d5565b820191906000526020600020905b8154815290600101906020018083116113b857829003601f168201915b505050505081526020016004820180546113ee906149ca565b80601f016020809104026020016040519081016040528092919081815260200182805461141a906149ca565b80156114675780601f1061143c57610100808354040283529160200191611467565b820191906000526020600020905b81548152906001019060200180831161144a57829003601f168201915b50505050508152602001600582018054611480906149ca565b80601f01602080910402602001604051908101604052809291908181526020018280546114ac906149ca565b80156114f95780601f106114ce576101008083540402835291602001916114f9565b820191906000526020600020905b8154815290600101906020018083116114dc57829003601f168201915b50505050508152602001600682015481525050905092915050565b61152561151f6127fd565b826128be565b611564576040517f08c379a000000000000000000000000000000000000000000000000000000000815260040161155b90614c24565b60405180910390fd5b61156f838383612953565b505050565b60088054611581906149ca565b80601f01602080910402602001604051908101604052809291908181526020018280546115ad906149ca565b80156115fa5780601f106115cf576101008083540402835291602001916115fa565b820191906000526020600020905b8154815290600101906020018083116115dd57829003601f168201915b505050505081565b61161d83838360405180602001604052806000815250611db9565b505050565b60008061162e83612c4d565b9050600073ffffffffffffffffffffffffffffffffffffffff168173ffffffffffffffffffffffffffffffffffffffff1614156116a0576040517f08c379a000000000000000000000000000000000000000000000000000000000815260040161169790614c90565b60405180910390fd5b80915050919050565b60008073ffffffffffffffffffffffffffffffffffffffff168273ffffffffffffffffffffffffffffffffffffffff16141561171a576040517f08c379a000000000000000000000000000000000000000000000000000000000815260040161171190614d22565b60405180910390fd5b600360008373ffffffffffffffffffffffffffffffffffffffff1673ffffffffffffffffffffffffffffffffffffffff168152602001908152602001600020549050919050565b606060018054611770906149ca565b80601f016020809104026020016040519081016040528092919081815260200182805461179c906149ca565b80156117e95780601f106117be576101008083540402835291602001916117e9565b820191906000526020600020905b8154815290600101906020018083116117cc57829003601f168201915b5050505050905090565b6118056117fe6127fd565b8383612c8a565b5050565b60606009805480602002602001604051908101604052809291908181526020016000905b82821015611b9957838290600052602060002090600702016040518060e0016040529081600082018054611860906149ca565b80601f016020809104026020016040519081016040528092919081815260200182805461188c906149ca565b80156118d95780601f106118ae576101008083540402835291602001916118d9565b820191906000526020600020905b8154815290600101906020018083116118bc57829003601f168201915b505050505081526020016001820160009054906101000a900473ffffffffffffffffffffffffffffffffffffffff1673ffffffffffffffffffffffffffffffffffffffff1673ffffffffffffffffffffffffffffffffffffffff168152602001600282018054611948906149ca565b80601f0160208091040260200160405190810160405280929190818152602001828054611974906149ca565b80156119c15780601f10611996576101008083540402835291602001916119c1565b820191906000526020600020905b8154815290600101906020018083116119a457829003601f168201915b505050505081526020016003820180546119da906149ca565b80601f0160208091040260200160405190810160405280929190818152602001828054611a06906149ca565b8015611a535780601f10611a2857610100808354040283529160200191611a53565b820191906000526020600020905b815481529060010190602001808311611a3657829003601f168201915b50505050508152602001600482018054611a6c906149ca565b80601f0160208091040260200160405190810160405280929190818152602001828054611a98906149ca565b8015611ae55780601f10611aba57610100808354040283529160200191611ae5565b820191906000526020600020905b815481529060010190602001808311611ac857829003601f168201915b50505050508152602001600582018054611afe906149ca565b80601f0160208091040260200160405190810160405280929190818152602001828054611b2a906149ca565b8015611b775780601f10611b4c57610100808354040283529160200191611b77565b820191906000526020600020905b815481529060010190602001808311611b5a57829003601f168201915b505050505081526020016006820154815250508152602001906001019061182d565b50505050905090565b6060600088886008604051602001611bbc93929190614e22565b60405160208183030381529060405290506000600b82600c604051602001611be693929190614e84565b60405160208183030381529060405290506000611c468b8b8080601f016020809104026020016040519081016040528093929190818152602001838380828437600081840152601f19601f82011690508083019250505050505050612df7565b90506000611c5382612fac565b9050611d47604051806060016040528060318152602001615e7a603191398d8d8080601f016020809104026020016040519081016040528093929190818152602001838380828437600081840152601f19601f8201169050808301925050505050505060088054611cc3906149ca565b80601f0160208091040260200160405190810160405280929190818152602001828054611cef906149ca565b8015611d3c5780601f10611d1157610100808354040283529160200191611d3c565b820191906000526020600020905b815481529060010190602001808311611d1f57829003601f168201915b50505050508d613084565b6000611d8585611d5686613126565b848d8d8d8d604051602001611d719796959493929190615375565b604051602081830303815290604052613126565b905080604051602001611d9891906154cb565b60405160208183030381529060405295505050505050979650505050505050565b611dca611dc46127fd565b836128be565b611e09576040517f08c379a0000000000000000000000000000000000000000000000000000000008152600401611e0090614c24565b60405180910390fd5b611e158484848461328a565b50505050565b600080600090505b600980549050811015611e9557828051906020012060098281548110611e4c57611e4b61496c565b5b9060005260206000209060070201600001604051611e6a919061558c565b60405180910390201415611e82576001915050611e9b565b8080611e8d906155d2565b915050611e23565b50600090505b919050565b6000611eef83838080601f016020809104026020016040519081016040528093929190818152602001838380828437600081840152601f19601f82011690508083019250505050505050611e1b565b611f2e576040517f08c379a0000000000000000000000000000000000000000000000000000000008152600401611f2590614903565b60405180910390fd5b6009600a8484604051611f42929190614953565b90815260200160405180910390205481548110611f6257611f6161496c565b5b906000526020600020906007020160010160009054906101000a900473ffffffffffffffffffffffffffffffffffffffff16905092915050565b6060611fa7826127b2565b6000600660008481526020019081526020016000208054611fc7906149ca565b80601f0160208091040260200160405190810160405280929190818152602001828054611ff3906149ca565b80156120405780601f1061201557610100808354040283529160200191612040565b820191906000526020600020905b81548152906001019060200180831161202357829003601f168201915b5050505050905060006120516132e6565b90506000815114156120675781925050506120aa565b60008251111561209c57808260405160200161208492919061561b565b604051602081830303815290604052925050506120aa565b6120a5846132fd565b925050505b919050565b6000600560008473ffffffffffffffffffffffffffffffffffffffff1673ffffffffffffffffffffffffffffffffffffffff16815260200190815260200160002060008373ffffffffffffffffffffffffffffffffffffffff1673ffffffffffffffffffffffffffffffffffffffff16815260200190815260200160002060009054906101000a900460ff16905092915050565b61219082828080601f016020809104026020016040519081016040528093929190818152602001838380828437600081840152601f19601f82011690508083019250505050505050611e1b565b156121d0576040517f08c379a00000000000000000000000000000000000000000000000000000000081526004016121c79061568b565b60405180910390fd5b60006121dc838361255f565b905080341015612221576040517f08c379a0000000000000000000000000000000000000000000000000000000008152600401612218906156f7565b60405180910390fd5b600061222d6007613365565b9050600061227c85858460405180602001604052806000815250604051806020016040528060008152506040518060200160405280600081525060405180602001604052806000815250611ba2565b905061229f604051806060016040528060398152602001615dc860399139613373565b6122de6040518060400160405280600e81526020017f46696e616c20746f6b656e55524900000000000000000000000000000000000081525082612638565b6122ff604051806060016040528060398152602001615e0160399139613373565b612309338361340c565b61231382826126d4565b60096040518060e0016040528087878080601f016020809104026020016040519081016040528093929190818152602001838380828437600081840152601f19601f8201169050808301925050505050505081526020013373ffffffffffffffffffffffffffffffffffffffff1681526020016040518060200160405280600081525081526020016040518060200160405280600081525081526020016040518060200160405280600081525081526020016040518060200160405280600081525081526020018481525090806001815401808255809150506001900390600052602060002090600702016000909190919091506000820151816000019080519060200190612423929190613b4d565b5060208201518160010160006101000a81548173ffffffffffffffffffffffffffffffffffffffff021916908373ffffffffffffffffffffffffffffffffffffffff1602179055506040820151816002019080519060200190612487929190613b4d565b5060608201518160030190805190602001906124a4929190613b4d565b5060808201518160040190805190602001906124c1929190613b4d565b5060a08201518160050190805190602001906124de929190613b4d565b5060c08201518160060155505060016009805490506124fd9190615717565b600a868660405161250f929190614953565b908152602001604051809103902081905550817f2c90500f5a0e37f312128d28363dbc50008dce37edb0c7cf97f50e18c86221e260405160405180910390a2612558600761342a565b5050505050565b6000806125af84848080601f016020809104026020016040519081016040528093929190818152602001838380828437600081840152601f19601f82011690508083019250505050505050612df7565b9050600081116125f4576040517f08c379a00000000000000000000000000000000000000000000000000000000081526004016125eb90615797565b60405180910390fd5b600381141561260d5766b1a2bc2ec50000915050612632565b600481141561262657666a94d74f430000915050612632565b662386f26fc100009150505b92915050565b6126d0828260405160240161264e9291906157b7565b6040516020818303038152906040527f4b5c4277000000000000000000000000000000000000000000000000000000007bffffffffffffffffffffffffffffffffffffffffffffffffffffffff19166020820180517bffffffffffffffffffffffffffffffffffffffffffffffffffffffff8381831617835250505050613440565b5050565b6126dd82613469565b61271c576040517f08c379a000000000000000000000000000000000000000000000000000000000815260040161271390615860565b60405180910390fd5b80600660008481526020019081526020016000209080519060200190612743929190613b4d565b505050565b60007f01ffc9a7000000000000000000000000000000000000000000000000000000007bffffffffffffffffffffffffffffffffffffffffffffffffffffffff1916827bffffffffffffffffffffffffffffffffffffffffffffffffffffffff1916149050919050565b6127bb81613469565b6127fa576040517f08c379a00000000000000000000000000000000000000000000000000000000081526004016127f190614c90565b60405180910390fd5b50565b600033905090565b816004600083815260200190815260200160002060006101000a81548173ffffffffffffffffffffffffffffffffffffffff021916908373ffffffffffffffffffffffffffffffffffffffff160217905550808273ffffffffffffffffffffffffffffffffffffffff1661287883611622565b73ffffffffffffffffffffffffffffffffffffffff167f8c5be1e5ebec7d5bd14f71427d1e84f3dd0314c0f7b2291e5b200ac8c7c3b92560405160405180910390a45050565b6000806128ca83611622565b90508073ffffffffffffffffffffffffffffffffffffffff168473ffffffffffffffffffffffffffffffffffffffff16148061290c575061290b81856120af565b5b8061294a57508373ffffffffffffffffffffffffffffffffffffffff1661293284610f93565b73ffffffffffffffffffffffffffffffffffffffff16145b91505092915050565b8273ffffffffffffffffffffffffffffffffffffffff1661297382611622565b73ffffffffffffffffffffffffffffffffffffffff16146129c9576040517f08c379a00000000000000000000000000000000000000000000000000000000081526004016129c0906158f2565b60405180910390fd5b600073ffffffffffffffffffffffffffffffffffffffff168273ffffffffffffffffffffffffffffffffffffffff161415612a39576040517f08c379a0000000000000000000000000000000000000000000000000000000008152600401612a3090615984565b60405180910390fd5b612a4683838360016134aa565b8273ffffffffffffffffffffffffffffffffffffffff16612a6682611622565b73ffffffffffffffffffffffffffffffffffffffff1614612abc576040517f08c379a0000000000000000000000000000000000000000000000000000000008152600401612ab3906158f2565b60405180910390fd5b6004600082815260200190815260200160002060006101000a81549073ffffffffffffffffffffffffffffffffffffffff02191690556001600360008573ffffffffffffffffffffffffffffffffffffffff1673ffffffffffffffffffffffffffffffffffffffff168152602001908152602001600020600082825403925050819055506001600360008473ffffffffffffffffffffffffffffffffffffffff1673ffffffffffffffffffffffffffffffffffffffff16815260200190815260200160002060008282540192505081905550816002600083815260200190815260200160002060006101000a81548173ffffffffffffffffffffffffffffffffffffffff021916908373ffffffffffffffffffffffffffffffffffffffff160217905550808273ffffffffffffffffffffffffffffffffffffffff168473ffffffffffffffffffffffffffffffffffffffff167fddf252ad1be2c89b69c2b068fc378daa952ba7f163c4a11628f55a4df523b3ef60405160405180910390a4612c4883838360016135d0565b505050565b60006002600083815260200190815260200160002060009054906101000a900473ffffffffffffffffffffffffffffffffffffffff169050919050565b8173ffffffffffffffffffffffffffffffffffffffff168373ffffffffffffffffffffffffffffffffffffffff161415612cf9576040517f08c379a0000000000000000000000000000000000000000000000000000000008152600401612cf0906159f0565b60405180910390fd5b80600560008573ffffffffffffffffffffffffffffffffffffffff1673ffffffffffffffffffffffffffffffffffffffff16815260200190815260200160002060008473ffffffffffffffffffffffffffffffffffffffff1673ffffffffffffffffffffffffffffffffffffffff16815260200190815260200160002060006101000a81548160ff0219169083151502179055508173ffffffffffffffffffffffffffffffffffffffff168373ffffffffffffffffffffffffffffffffffffffff167f17307eab39ab6107e8899845ad3d59bd9653f200f220920489ca2b5937696c3183604051612dea9190613e79565b60405180910390a3505050565b60008060008084519050600092505b80821015612fa1576000858381518110612e2357612e2261496c565b5b602001015160f81c60f81b9050608060f81b817effffffffffffffffffffffffffffffffffffffffffffffffffffffffffffff19161015612e7257600183612e6b9190615a10565b9250612f8d565b60e060f81b817effffffffffffffffffffffffffffffffffffffffffffffffffffffffffffff19161015612eb457600283612ead9190615a10565b9250612f8c565b60f060f81b817effffffffffffffffffffffffffffffffffffffffffffffffffffffffffffff19161015612ef657600383612eef9190615a10565b9250612f8b565b60f8801b817effffffffffffffffffffffffffffffffffffffffffffffffffffffffffffff19161015612f3757600483612f309190615a10565b9250612f8a565b60fc60f81b817effffffffffffffffffffffffffffffffffffffffffffffffffffffffffffff19161015612f7957600583612f729190615a10565b9250612f89565b600683612f869190615a10565b92505b5b5b5b5b508280612f99906155d2565b935050612e06565b829350505050919050565b606060006001612fbb846135d6565b01905060008167ffffffffffffffff811115612fda57612fd96144c0565b5b6040519080825280601f01601f19166020018201604052801561300c5781602001600182028036833780820191505090505b509050600082602001820190505b600115613079578080600190039150507f3031323334353637383961626364656600000000000000000000000000000000600a86061a8153600a858161306357613062615a66565b5b049450600085141561307457613079565b61301a565b819350505050919050565b6131208484848460405160240161309e9493929190615a95565b6040516020818303038152906040527f8eafb02b000000000000000000000000000000000000000000000000000000007bffffffffffffffffffffffffffffffffffffffffffffffffffffffff19166020820180517bffffffffffffffffffffffffffffffffffffffffffffffffffffffff8381831617835250505050613440565b50505050565b606060008251141561314957604051806020016040528060008152509050613285565b6000604051806060016040528060408152602001615e3a60409139905060006003600285516131789190615a10565b6131829190615aef565b600461318e9190615b20565b67ffffffffffffffff8111156131a7576131a66144c0565b5b6040519080825280601f01601f1916602001820160405280156131d95781602001600182028036833780820191505090505b509050600182016020820185865187015b80821015613245576003820191508151603f8160121c168501518453600184019350603f81600c1c168501518453600184019350603f8160061c168501518453600184019350603f81168501518453600184019350506131ea565b505060038651066001811461326157600281146132745761327c565b603d6001830353603d600283035361327c565b603d60018303535b50505080925050505b919050565b613295848484612953565b6132a184848484613729565b6132e0576040517f08c379a00000000000000000000000000000000000000000000000000000000081526004016132d790615bec565b60405180910390fd5b50505050565b606060405180602001604052806000815250905090565b6060613308826127b2565b60006133126132e6565b90506000815111613332576040518060200160405280600081525061335d565b8061333c84612fac565b60405160200161334d92919061561b565b6040516020818303038152906040525b915050919050565b600081600001549050919050565b613409816040516024016133879190613f2d565b6040516020818303038152906040527f41304fac000000000000000000000000000000000000000000000000000000007bffffffffffffffffffffffffffffffffffffffffffffffffffffffff19166020820180517bffffffffffffffffffffffffffffffffffffffffffffffffffffffff8381831617835250505050613440565b50565b6134268282604051806020016040528060008152506138b1565b5050565b6001816000016000828254019250508190555050565b60008151905060006a636f6e736f6c652e6c6f679050602083016000808483855afa5050505050565b60008073ffffffffffffffffffffffffffffffffffffffff1661348b83612c4d565b73ffffffffffffffffffffffffffffffffffffffff1614159050919050565b60018111156135ca57600073ffffffffffffffffffffffffffffffffffffffff168473ffffffffffffffffffffffffffffffffffffffff161461353e5780600360008673ffffffffffffffffffffffffffffffffffffffff1673ffffffffffffffffffffffffffffffffffffffff16815260200190815260200160002060008282546135369190615717565b925050819055505b600073ffffffffffffffffffffffffffffffffffffffff168373ffffffffffffffffffffffffffffffffffffffff16146135c95780600360008573ffffffffffffffffffffffffffffffffffffffff1673ffffffffffffffffffffffffffffffffffffffff16815260200190815260200160002060008282546135c19190615a10565b925050819055505b5b50505050565b50505050565b600080600090507a184f03e93ff9f4daa797ed6e38ed64bf6a1f0100000000000000008310613634577a184f03e93ff9f4daa797ed6e38ed64bf6a1f010000000000000000838161362a57613629615a66565b5b0492506040810190505b6d04ee2d6d415b85acef81000000008310613671576d04ee2d6d415b85acef8100000000838161366757613666615a66565b5b0492506020810190505b662386f26fc1000083106136a057662386f26fc10000838161369657613695615a66565b5b0492506010810190505b6305f5e10083106136c9576305f5e10083816136bf576136be615a66565b5b0492506008810190505b61271083106136ee5761271083816136e4576136e3615a66565b5b0492506004810190505b60648310613711576064838161370757613706615a66565b5b0492506002810190505b600a8310613720576001810190505b80915050919050565b600061374a8473ffffffffffffffffffffffffffffffffffffffff1661390c565b156138a4578373ffffffffffffffffffffffffffffffffffffffff1663150b7a026137736127fd565b8786866040518563ffffffff1660e01b81526004016137959493929190615c61565b6020604051808303816000875af19250505080156137d157506040513d601f19601f820116820180604052508101906137ce9190615cc2565b60015b613854573d8060008114613801576040519150601f19603f3d011682016040523d82523d6000602084013e613806565b606091505b5060008151141561384c576040517f08c379a000000000000000000000000000000000000000000000000000000000815260040161384390615bec565b60405180910390fd5b805181602001fd5b63150b7a0260e01b7bffffffffffffffffffffffffffffffffffffffffffffffffffffffff1916817bffffffffffffffffffffffffffffffffffffffffffffffffffffffff1916149150506138a9565b600190505b949350505050565b6138bb838361392f565b6138c86000848484613729565b613907576040517f08c379a00000000000000000000000000000000000000000000000000000000081526004016138fe90615bec565b60405180910390fd5b505050565b6000808273ffffffffffffffffffffffffffffffffffffffff163b119050919050565b600073ffffffffffffffffffffffffffffffffffffffff168273ffffffffffffffffffffffffffffffffffffffff16141561399f576040517f08c379a000000000000000000000000000000000000000000000000000000000815260040161399690615d3b565b60405180910390fd5b6139a881613469565b156139e8576040517f08c379a00000000000000000000000000000000000000000000000000000000081526004016139df90615da7565b60405180910390fd5b6139f66000838360016134aa565b6139ff81613469565b15613a3f576040517f08c379a0000000000000000000000000000000000000000000000000000000008152600401613a3690615da7565b60405180910390fd5b6001600360008473ffffffffffffffffffffffffffffffffffffffff1673ffffffffffffffffffffffffffffffffffffffff16815260200190815260200160002060008282540192505081905550816002600083815260200190815260200160002060006101000a81548173ffffffffffffffffffffffffffffffffffffffff021916908373ffffffffffffffffffffffffffffffffffffffff160217905550808273ffffffffffffffffffffffffffffffffffffffff16600073ffffffffffffffffffffffffffffffffffffffff167fddf252ad1be2c89b69c2b068fc378daa952ba7f163c4a11628f55a4df523b3ef60405160405180910390a4613b496000838360016135d0565b5050565b828054613b59906149ca565b90600052602060002090601f016020900481019282613b7b5760008555613bc2565b82601f10613b9457805160ff1916838001178555613bc2565b82800160010185558215613bc2579182015b82811115613bc1578251825591602001919060010190613ba6565b5b509050613bcf9190613c26565b5090565b6040518060e0016040528060608152602001600073ffffffffffffffffffffffffffffffffffffffff16815260200160608152602001606081526020016060815260200160608152602001600081525090565b5b80821115613c3f576000816000905550600101613c27565b5090565b6000604051905090565b600080fd5b600080fd5b600080fd5b600080fd5b600080fd5b60008083601f840112613c7c57613c7b613c57565b5b8235905067ffffffffffffffff811115613c9957613c98613c5c565b5b602083019150836001820283011115613cb557613cb4613c61565b5b9250929050565b60008060008060008060008060008060a08b8d031215613cdf57613cde613c4d565b5b60008b013567ffffffffffffffff811115613cfd57613cfc613c52565b5b613d098d828e01613c66565b9a509a505060208b013567ffffffffffffffff811115613d2c57613d2b613c52565b5b613d388d828e01613c66565b985098505060408b013567ffffffffffffffff811115613d5b57613d5a613c52565b5b613d678d828e01613c66565b965096505060608b013567ffffffffffffffff811115613d8a57613d89613c52565b5b613d968d828e01613c66565b945094505060808b013567ffffffffffffffff811115613db957613db8613c52565b5b613dc58d828e01613c66565b92509250509295989b9194979a5092959850565b60007fffffffff0000000000000000000000000000000000000000000000000000000082169050919050565b613e0e81613dd9565b8114613e1957600080fd5b50565b600081359050613e2b81613e05565b92915050565b600060208284031215613e4757613e46613c4d565b5b6000613e5584828501613e1c565b91505092915050565b60008115159050919050565b613e7381613e5e565b82525050565b6000602082019050613e8e6000830184613e6a565b92915050565b600081519050919050565b600082825260208201905092915050565b60005b83811015613ece578082015181840152602081019050613eb3565b83811115613edd576000848401525b50505050565b6000601f19601f8301169050919050565b6000613eff82613e94565b613f098185613e9f565b9350613f19818560208601613eb0565b613f2281613ee3565b840191505092915050565b60006020820190508181036000830152613f478184613ef4565b905092915050565b6000819050919050565b613f6281613f4f565b8114613f6d57600080fd5b50565b600081359050613f7f81613f59565b92915050565b600060208284031215613f9b57613f9a613c4d565b5b6000613fa984828501613f70565b91505092915050565b600073ffffffffffffffffffffffffffffffffffffffff82169050919050565b6000613fdd82613fb2565b9050919050565b613fed81613fd2565b82525050565b60006020820190506140086000830184613fe4565b92915050565b61401781613fd2565b811461402257600080fd5b50565b6000813590506140348161400e565b92915050565b6000806040838503121561405157614050613c4d565b5b600061405f85828601614025565b925050602061407085828601613f70565b9150509250929050565b6000806020838503121561409157614090613c4d565b5b600083013567ffffffffffffffff8111156140af576140ae613c52565b5b6140bb85828601613c66565b92509250509250929050565b600082825260208201905092915050565b60006140e382613e94565b6140ed81856140c7565b93506140fd818560208601613eb0565b61410681613ee3565b840191505092915050565b61411a81613fd2565b82525050565b61412981613f4f565b82525050565b600060e083016000830151848203600086015261414c82826140d8565b91505060208301516141616020860182614111565b506040830151848203604086015261417982826140d8565b9150506060830151848203606086015261419382826140d8565b915050608083015184820360808601526141ad82826140d8565b91505060a083015184820360a08601526141c782826140d8565b91505060c08301516141dc60c0860182614120565b508091505092915050565b60006020820190508181036000830152614201818461412f565b905092915050565b60008060006060848603121561422257614221613c4d565b5b600061423086828701614025565b935050602061424186828701614025565b925050604061425286828701613f70565b9150509250925092565b60006020828403121561427257614271613c4d565b5b600061428084828501614025565b91505092915050565b61429281613f4f565b82525050565b60006020820190506142ad6000830184614289565b92915050565b6142bc81613e5e565b81146142c757600080fd5b50565b6000813590506142d9816142b3565b92915050565b600080604083850312156142f6576142f5613c4d565b5b600061430485828601614025565b9250506020614315858286016142ca565b9150509250929050565b600081519050919050565b600082825260208201905092915050565b6000819050602082019050919050565b600060e083016000830151848203600086015261436882826140d8565b915050602083015161437d6020860182614111565b506040830151848203604086015261439582826140d8565b915050606083015184820360608601526143af82826140d8565b915050608083015184820360808601526143c982826140d8565b91505060a083015184820360a08601526143e382826140d8565b91505060c08301516143f860c0860182614120565b508091505092915050565b600061440f838361434b565b905092915050565b6000602082019050919050565b600061442f8261431f565b614439818561432a565b93508360208202850161444b8561433b565b8060005b8581101561448757848403895281516144688582614403565b945061447383614417565b925060208a0199505060018101905061444f565b50829750879550505050505092915050565b600060208201905081810360008301526144b38184614424565b905092915050565b600080fd5b7f4e487b7100000000000000000000000000000000000000000000000000000000600052604160045260246000fd5b6144f882613ee3565b810181811067ffffffffffffffff82111715614517576145166144c0565b5b80604052505050565b600061452a613c43565b905061453682826144ef565b919050565b600067ffffffffffffffff821115614556576145556144c0565b5b61455f82613ee3565b9050602081019050919050565b82818337600083830152505050565b600061458e6145898461453b565b614520565b9050828152602081018484840111156145aa576145a96144bb565b5b6145b584828561456c565b509392505050565b600082601f8301126145d2576145d1613c57565b5b81356145e284826020860161457b565b91505092915050565b600080600080600080600060c0888a03121561460a57614609613c4d565b5b600088013567ffffffffffffffff81111561462857614627613c52565b5b6146348a828b01613c66565b975097505060206146478a828b01613f70565b955050604088013567ffffffffffffffff81111561466857614667613c52565b5b6146748a828b016145bd565b945050606088013567ffffffffffffffff81111561469557614694613c52565b5b6146a18a828b016145bd565b935050608088013567ffffffffffffffff8111156146c2576146c1613c52565b5b6146ce8a828b016145bd565b92505060a088013567ffffffffffffffff8111156146ef576146ee613c52565b5b6146fb8a828b016145bd565b91505092959891949750929550565b600067ffffffffffffffff821115614725576147246144c0565b5b61472e82613ee3565b9050602081019050919050565b600061474e6147498461470a565b614520565b90508281526020810184848401111561476a576147696144bb565b5b61477584828561456c565b509392505050565b600082601f83011261479257614791613c57565b5b81356147a284826020860161473b565b91505092915050565b600080600080608085870312156147c5576147c4613c4d565b5b60006147d387828801614025565b94505060206147e487828801614025565b93505060406147f587828801613f70565b925050606085013567ffffffffffffffff81111561481657614815613c52565b5b6148228782880161477d565b91505092959194509250565b60006020828403121561484457614843613c4d565b5b600082013567ffffffffffffffff81111561486257614861613c52565b5b61486e848285016145bd565b91505092915050565b6000806040838503121561488e5761488d613c4d565b5b600061489c85828601614025565b92505060206148ad85828601614025565b9150509250929050565b7f556e6b6e6f776e20646f6d61696e000000000000000000000000000000000000600082015250565b60006148ed600e83613e9f565b91506148f8826148b7565b602082019050919050565b6000602082019050818103600083015261491c816148e0565b9050919050565b600081905092915050565b600061493a8385614923565b935061494783858461456c565b82840190509392505050565b600061496082848661492e565b91508190509392505050565b7f4e487b7100000000000000000000000000000000000000000000000000000000600052603260045260246000fd5b7f4e487b7100000000000000000000000000000000000000000000000000000000600052602260045260246000fd5b600060028204905060018216806149e257607f821691505b602082108114156149f6576149f561499b565b5b50919050565b7f53656e646572206973206e6f7420746865206f776e6572206f6620746865206460008201527f6f6d61696e000000000000000000000000000000000000000000000000000000602082015250565b6000614a58602583613e9f565b9150614a63826149fc565b604082019050919050565b60006020820190508181036000830152614a8781614a4b565b9050919050565b7f4552433732313a20617070726f76616c20746f2063757272656e74206f776e6560008201527f7200000000000000000000000000000000000000000000000000000000000000602082015250565b6000614aea602183613e9f565b9150614af582614a8e565b604082019050919050565b60006020820190508181036000830152614b1981614add565b9050919050565b7f4552433732313a20617070726f76652063616c6c6572206973206e6f7420746f60008201527f6b656e206f776e6572206f7220617070726f76656420666f7220616c6c000000602082015250565b6000614b7c603d83613e9f565b9150614b8782614b20565b604082019050919050565b60006020820190508181036000830152614bab81614b6f565b9050919050565b7f4552433732313a2063616c6c6572206973206e6f7420746f6b656e206f776e6560008201527f72206f7220617070726f76656400000000000000000000000000000000000000602082015250565b6000614c0e602d83613e9f565b9150614c1982614bb2565b604082019050919050565b60006020820190508181036000830152614c3d81614c01565b9050919050565b7f4552433732313a20696e76616c696420746f6b656e2049440000000000000000600082015250565b6000614c7a601883613e9f565b9150614c8582614c44565b602082019050919050565b60006020820190508181036000830152614ca981614c6d565b9050919050565b7f4552433732313a2061646472657373207a65726f206973206e6f74206120766160008201527f6c6964206f776e65720000000000000000000000000000000000000000000000602082015250565b6000614d0c602983613e9f565b9150614d1782614cb0565b604082019050919050565b60006020820190508181036000830152614d3b81614cff565b9050919050565b7f2e00000000000000000000000000000000000000000000000000000000000000600082015250565b6000614d78600183614923565b9150614d8382614d42565b600182019050919050565b60008190508160005260206000209050919050565b60008154614db0816149ca565b614dba8186614923565b94506001821660008114614dd55760018114614de657614e19565b60ff19831686528186019350614e19565b614def85614d8e565b60005b83811015614e1157815481890152600182019150602081019050614df2565b838801955050505b50505092915050565b6000614e2f82858761492e565b9150614e3a82614d6b565b9150614e468284614da3565b9150819050949350505050565b6000614e5e82613e94565b614e688185614923565b9350614e78818560208601613eb0565b80840191505092915050565b6000614e908286614da3565b9150614e9c8285614e53565b9150614ea88284614da3565b9150819050949350505050565b7f7b226e616d65223a202200000000000000000000000000000000000000000000600082015250565b6000614eeb600a83614923565b9150614ef682614eb5565b600a82019050919050565b7f222c20226465736372697074696f6e223a20224120646f6d61696e206f6e207460008201527f6865204c6f7665204e616d652053657276696365222c2022696d616765223a2060208201527f22646174613a696d6167652f7376672b786d6c3b6261736536342c0000000000604082015250565b6000614f83605b83614923565b9150614f8e82614f01565b605b82019050919050565b7f222c226c656e677468223a220000000000000000000000000000000000000000600082015250565b6000614fcf600c83614923565b9150614fda82614f99565b600c82019050919050565b7f222c000000000000000000000000000000000000000000000000000000000000600082015250565b600061501b600283614923565b915061502682614fe5565b600282019050919050565b7f2261747472696275746573223a205b0000000000000000000000000000000000600082015250565b6000615067600f83614923565b915061507282615031565b600f82019050919050565b7f7b2274726169745f74797065223a202257656273697465222c202276616c756560008201527f223a202200000000000000000000000000000000000000000000000000000000602082015250565b60006150d9602483614923565b91506150e48261507d565b602482019050919050565b7f227d2c0000000000000000000000000000000000000000000000000000000000600082015250565b6000615125600383614923565b9150615130826150ef565b600382019050919050565b7f7b2274726169745f74797065223a2022456d61696c222c202276616c7565223a60008201527f2022000000000000000000000000000000000000000000000000000000000000602082015250565b6000615197602283614923565b91506151a28261513b565b602282019050919050565b7f7b2274726169745f74797065223a202254776974746572222c202276616c756560008201527f223a202200000000000000000000000000000000000000000000000000000000602082015250565b6000615209602483614923565b9150615214826151ad565b602482019050919050565b7f7b2274726169745f74797065223a2022476974687562222c202276616c75652260008201527f3a20220000000000000000000000000000000000000000000000000000000000602082015250565b600061527b602383614923565b91506152868261521f565b602382019050919050565b7f227d000000000000000000000000000000000000000000000000000000000000600082015250565b60006152c7600283614923565b91506152d282615291565b600282019050919050565b7f5d00000000000000000000000000000000000000000000000000000000000000600082015250565b6000615313600183614923565b915061531e826152dd565b600182019050919050565b7f7d00000000000000000000000000000000000000000000000000000000000000600082015250565b600061535f600183614923565b915061536a82615329565b600182019050919050565b600061538082614ede565b915061538c828a614e53565b915061539782614f76565b91506153a38289614e53565b91506153ae82614fc2565b91506153ba8288614e53565b91506153c58261500e565b91506153d08261505a565b91506153db826150cc565b91506153e78287614e53565b91506153f282615118565b91506153fd8261518a565b91506154098286614e53565b915061541482615118565b915061541f826151fc565b915061542b8285614e53565b915061543682615118565b91506154418261526e565b915061544d8284614e53565b9150615458826152ba565b915061546382615306565b915061546e82615352565b915081905098975050505050505050565b7f646174613a6170706c69636174696f6e2f6a736f6e3b6261736536342c000000600082015250565b60006154b5601d83614923565b91506154c08261547f565b601d82019050919050565b60006154d6826154a8565b91506154e28284614e53565b915081905092915050565b600081905092915050565b60008190508160005260206000209050919050565b6000815461551a816149ca565b61552481866154ed565b9450600182166000811461553f576001811461555057615583565b60ff19831686528186019350615583565b615559856154f8565b60005b8381101561557b5781548189015260018201915060208101905061555c565b838801955050505b50505092915050565b6000615598828461550d565b915081905092915050565b7f4e487b7100000000000000000000000000000000000000000000000000000000600052601160045260246000fd5b60006155dd82613f4f565b91507fffffffffffffffffffffffffffffffffffffffffffffffffffffffffffffffff8214156156105761560f6155a3565b5b600182019050919050565b60006156278285614e53565b91506156338284614e53565b91508190509392505050565b7f446f6d61696e20616c7265616479207265676973746572656400000000000000600082015250565b6000615675601983613e9f565b91506156808261563f565b602082019050919050565b600060208201905081810360008301526156a481615668565b9050919050565b7f496e73756666696369656e742066756e64732072656365697665640000000000600082015250565b60006156e1601b83613e9f565b91506156ec826156ab565b602082019050919050565b60006020820190508181036000830152615710816156d4565b9050919050565b600061572282613f4f565b915061572d83613f4f565b9250828210156157405761573f6155a3565b5b828203905092915050565b7f496e76616c6964206c656e677468000000000000000000000000000000000000600082015250565b6000615781600e83613e9f565b915061578c8261574b565b602082019050919050565b600060208201905081810360008301526157b081615774565b9050919050565b600060408201905081810360008301526157d18185613ef4565b905081810360208301526157e58184613ef4565b90509392505050565b7f45524337323155524953746f726167653a2055524920736574206f66206e6f6e60008201527f6578697374656e7420746f6b656e000000000000000000000000000000000000602082015250565b600061584a602e83613e9f565b9150615855826157ee565b604082019050919050565b600060208201905081810360008301526158798161583d565b9050919050565b7f4552433732313a207472616e736665722066726f6d20696e636f72726563742060008201527f6f776e6572000000000000000000000000000000000000000000000000000000602082015250565b60006158dc602583613e9f565b91506158e782615880565b604082019050919050565b6000602082019050818103600083015261590b816158cf565b9050919050565b7f4552433732313a207472616e7366657220746f20746865207a65726f2061646460008201527f7265737300000000000000000000000000000000000000000000000000000000602082015250565b600061596e602483613e9f565b915061597982615912565b604082019050919050565b6000602082019050818103600083015261599d81615961565b9050919050565b7f4552433732313a20617070726f766520746f2063616c6c657200000000000000600082015250565b60006159da601983613e9f565b91506159e5826159a4565b602082019050919050565b60006020820190508181036000830152615a09816159cd565b9050919050565b6000615a1b82613f4f565b9150615a2683613f4f565b9250827fffffffffffffffffffffffffffffffffffffffffffffffffffffffffffffffff03821115615a5b57615a5a6155a3565b5b828201905092915050565b7f4e487b7100000000000000000000000000000000000000000000000000000000600052601260045260246000fd5b60006080820190508181036000830152615aaf8187613ef4565b90508181036020830152615ac38186613ef4565b90508181036040830152615ad78185613ef4565b9050615ae66060830184614289565b95945050505050565b6000615afa82613f4f565b9150615b0583613f4f565b925082615b1557615b14615a66565b5b828204905092915050565b6000615b2b82613f4f565b9150615b3683613f4f565b9250817fffffffffffffffffffffffffffffffffffffffffffffffffffffffffffffffff0483118215151615615b6f57615b6e6155a3565b5b828202905092915050565b7f4552433732313a207472616e7366657220746f206e6f6e20455243373231526560008201527f63656976657220696d706c656d656e7465720000000000000000000000000000602082015250565b6000615bd6603283613e9f565b9150615be182615b7a565b604082019050919050565b60006020820190508181036000830152615c0581615bc9565b9050919050565b600081519050919050565b600082825260208201905092915050565b6000615c3382615c0c565b615c3d8185615c17565b9350615c4d818560208601613eb0565b615c5681613ee3565b840191505092915050565b6000608082019050615c766000830187613fe4565b615c836020830186613fe4565b615c906040830185614289565b8181036060830152615ca28184615c28565b905095945050505050565b600081519050615cbc81613e05565b92915050565b600060208284031215615cd857615cd7613c4d565b5b6000615ce684828501615cad565b91505092915050565b7f4552433732313a206d696e7420746f20746865207a65726f2061646472657373600082015250565b6000615d25602083613e9f565b9150615d3082615cef565b602082019050919050565b60006020820190508181036000830152615d5481615d18565b9050919050565b7f4552433732313a20746f6b656e20616c7265616479206d696e74656400000000600082015250565b6000615d91601c83613e9f565b9150615d9c82615d5b565b602082019050919050565b60006020820190508181036000830152615dc081615d84565b905091905056fe0a2d2d2d2d2d2d2d2d2d2d2d2d2d2d2d2d2d2d2d2d2d2d2d2d2d2d2d2d2d2d2d2d2d2d2d2d2d2d2d2d2d2d2d2d2d2d2d2d2d2d2d2d2d2d2d2d2d2d2d2d2d2d2d2d2d2d2d2d2d2d2d2d2d2d2d2d2d2d2d2d2d2d2d2d2d2d2d2d2d2d2d2d2d2d2d2d2d2d2d2d2d2d2d2d2d2d2d2d2d2d2d2d0a4142434445464748494a4b4c4d4e4f505152535455565758595a6162636465666768696a6b6c6d6e6f707172737475767778797a303132333435363738392b2f5265676973746572696e672025732e2573206f6e2074686520636f6e7472616374207769746820746f6b656e4944202573a26469706673582212201b7f75bb27e4b864ba6dd43fb9908d3877281687f5706c1958e3a5ca8505bcf564736f6c634300080a00333c73766720786d6c6e733d22687474703a2f2f7777772e77332e6f72672f323030302f737667222077696474683d2232373022206865696768743d22323730222066696c6c3d226e6f6e65223e3c706174682066696c6c3d2275726c282342292220643d224d302030683237307632373048307a222f3e3c646566733e3c66696c7465722069643d22412220636f6c6f722d696e746572706f6c6174696f6e2d66696c746572733d2273524742222066696c746572556e6974733d227573657253706163654f6e55736522206865696768743d22323730222077696474683d22323730223e3c666544726f70536861646f772064783d2230222064793d22312220737464446576696174696f6e3d22322220666c6f6f642d6f7061636974793d222e323235222077696474683d223230302522206865696768743d2232303025222f3e3c2f66696c7465723e3c2f646566733e3c7061746820643d224d37322e3836332034322e393439632d2e3636382d2e3338372d312e3432362d2e35392d322e3139372d2e3539732d312e3532392e3230342d322e3139372e35396c2d31302e30383120362e3033322d362e383520332e3933342d31302e30383120362e303332632d2e3636382e3338372d312e3432362e35392d322e3139372e3539732d312e3532392d2e3230342d322e3139372d2e35396c2d382e3031332d342e37323161342e353220342e35322030203020312d312e3538392d312e363136632d2e3338342d2e3636352d2e3539342d312e3431382d2e3630382d322e313837762d392e3331632d2e3031332d2e3737352e3138352d312e3533382e3537322d322e32303861342e323520342e323520302030203120312e3632352d312e3539356c372e3838342d342e3539632e3636382d2e33383720312e3432362d2e353920322e3139372d2e353973312e3532392e32303420322e3139372e35396c372e38383420342e353961342e353220342e353220302030203120312e35383920312e363136632e3338342e3636352e35393420312e3431382e36303820322e31383776362e3033326c362e38352d342e303635762d362e303332632e3031332d2e3737352d2e3138352d312e3533382d2e3537322d322e32303861342e323520342e32352030203020302d312e3632352d312e3539354c34312e3435362032342e3539632d2e3636382d2e3338372d312e3432362d2e35392d322e3139372d2e3539732d312e3532392e3230342d322e3139372e35396c2d31342e38363420382e36353561342e323520342e32352030203020302d312e36323520312e353935632d2e3338372e36372d2e35383520312e3433342d2e35373220322e3230387631372e343431632d2e3031332e3737352e31383520312e3533382e35373220322e32303861342e323520342e323520302030203020312e36323520312e3539356c31342e38363420382e363535632e3636382e33383720312e3432362e353920322e3139372e353973312e3532392d2e32303420322e3139372d2e35396c31302e3038312d352e39303120362e38352d342e3036352031302e3038312d352e393031632e3636382d2e33383720312e3432362d2e353920322e3139372d2e353973312e3532392e32303420322e3139372e35396c372e38383420342e353961342e353220342e353220302030203120312e35383920312e363136632e3338342e3636352e35393420312e3431382e36303820322e31383776392e333131632e3031332e3737352d2e31383520312e3533382d2e35373220322e32303861342e323520342e32352030203020312d312e36323520312e3539356c2d372e38383420342e373231632d2e3636382e3338372d312e3432362e35392d322e3139372e3539732d312e3532392d2e3230342d322e3139372d2e35396c2d372e3838342d342e353961342e353220342e35322030203020312d312e3538392d312e363136632d2e3338352d2e3636352d2e3539342d312e3431382d2e3630382d322e313837762d362e3033326c2d362e383520342e30363576362e303332632d2e3031332e3737352e31383520312e3533382e35373220322e32303861342e323520342e323520302030203020312e36323520312e3539356c31342e38363420382e363535632e3636382e33383720312e3432362e353920322e3139372e353973312e3532392d2e32303420322e3139372d2e35396c31342e3836342d382e363535632e3635372d2e33393420312e3230342d2e393520312e3538392d312e363136732e3539342d312e3431382e3630392d322e3138375635352e353338632e3031332d2e3737352d2e3138352d312e3533382d2e3537322d322e32303861342e323520342e32352030203020302d312e3632352d312e3539356c2d31342e3939332d382e3738367a222066696c6c3d2223666666222f3e3c646566733e3c6c696e6561724772616469656e742069643d2242222078313d2230222079313d2230222078323d22323730222079323d2232373022206772616469656e74556e6974733d227573657253706163654f6e557365223e3c73746f702073746f702d636f6c6f723d2223424134333433222f3e3c73746f70206f66667365743d22302e37222073746f702d636f6c6f723d2223313930423238222073746f702d6f7061636974793d222e3939222f3e3c2f6c696e6561724772616469656e743e3c2f646566733e3c7465787420783d2232322e352220793d223233312220666f6e742d73697a653d223232222066696c6c3d2223666666222066696c7465723d2275726c282341292220666f6e742d66616d696c793d22506c7573204a616b617274612053616e732c44656a6156752053616e732c4e6f746f20436f6c6f7220456d6f6a692c4170706c6520436f6c6f7220456d6f6a692c73616e732d73657269662220666f6e742d7765696768743d22626f6c64223e",
  "linkReferences": {},
  "deployedLinkReferences": {}
}