{
  "_format": "hh-sol-artifact-1",
  "contractName": "Domains",
  "sourceName": "contracts/Domains.sol",
  "abi": [
    {
      "inputs": [
        {
          "internalType": "string",
          "name": "_tld",
          "type": "string"
        }
      ],
      "stateMutability": "payable",
      "type": "constructor"
    },
    {
      "inputs": [],
      "name": "AlreadyRegistered",
      "type": "error"
    },
    {
      "inputs": [
        {
          "internalType": "string",
          "name": "name",
          "type": "string"
        }
      ],
      "name": "InvalidName",
      "type": "error"
    },
    {
      "inputs": [],
      "name": "Unauthorized",
      "type": "error"
    },
    {
      "anonymous": false,
      "inputs": [
        {
          "indexed": true,
          "internalType": "address",
          "name": "owner",
          "type": "address"
        },
        {
          "indexed": true,
          "internalType": "address",
          "name": "approved",
          "type": "address"
        },
        {
          "indexed": true,
          "internalType": "uint256",
          "name": "tokenId",
          "type": "uint256"
        }
      ],
      "name": "Approval",
      "type": "event"
    },
    {
      "anonymous": false,
      "inputs": [
        {
          "indexed": true,
          "internalType": "address",
          "name": "owner",
          "type": "address"
        },
        {
          "indexed": true,
          "internalType": "address",
          "name": "operator",
          "type": "address"
        },
        {
          "indexed": false,
          "internalType": "bool",
          "name": "approved",
          "type": "bool"
        }
      ],
      "name": "ApprovalForAll",
      "type": "event"
    },
    {
      "anonymous": false,
      "inputs": [
        {
          "indexed": true,
          "internalType": "uint256",
          "name": "_tokenId",
          "type": "uint256"
        }
      ],
      "name": "DomainRegistered",
      "type": "event"
    },
    {
      "anonymous": false,
      "inputs": [
        {
          "indexed": true,
          "internalType": "address",
          "name": "from",
          "type": "address"
        },
        {
          "indexed": true,
          "internalType": "address",
          "name": "to",
          "type": "address"
        },
        {
          "indexed": true,
          "internalType": "uint256",
          "name": "tokenId",
          "type": "uint256"
        }
      ],
      "name": "Transfer",
      "type": "event"
    },
    {
      "inputs": [
        {
          "internalType": "address",
          "name": "to",
          "type": "address"
        },
        {
          "internalType": "uint256",
          "name": "tokenId",
          "type": "uint256"
        }
      ],
      "name": "approve",
      "outputs": [],
      "stateMutability": "nonpayable",
      "type": "function"
    },
    {
      "inputs": [
        {
          "internalType": "address",
          "name": "owner",
          "type": "address"
        }
      ],
      "name": "balanceOf",
      "outputs": [
        {
          "internalType": "uint256",
          "name": "",
          "type": "uint256"
        }
      ],
      "stateMutability": "view",
      "type": "function"
    },
    {
      "inputs": [
        {
          "internalType": "string",
          "name": "name",
          "type": "string"
        }
      ],
      "name": "domainIsRegistered",
      "outputs": [
        {
          "internalType": "bool",
          "name": "",
          "type": "bool"
        }
      ],
      "stateMutability": "view",
      "type": "function"
    },
    {
      "inputs": [
        {
          "internalType": "string",
          "name": "name",
          "type": "string"
        }
      ],
      "name": "getAddress",
      "outputs": [
        {
          "internalType": "address",
          "name": "",
          "type": "address"
        }
      ],
      "stateMutability": "view",
      "type": "function"
    },
    {
      "inputs": [],
      "name": "getAllRecords",
      "outputs": [
        {
          "components": [
            {
              "internalType": "string",
              "name": "name",
              "type": "string"
            },
            {
              "internalType": "address",
              "name": "addr",
              "type": "address"
            },
            {
              "internalType": "string",
              "name": "website",
              "type": "string"
            },
            {
              "internalType": "string",
              "name": "email",
              "type": "string"
            },
            {
              "internalType": "uint256",
              "name": "tokenId",
              "type": "uint256"
            }
          ],
          "internalType": "struct Domains.DomainRecord[]",
          "name": "",
          "type": "tuple[]"
        }
      ],
      "stateMutability": "view",
      "type": "function"
    },
    {
      "inputs": [
        {
          "internalType": "uint256",
          "name": "tokenId",
          "type": "uint256"
        }
      ],
      "name": "getApproved",
      "outputs": [
        {
          "internalType": "address",
          "name": "",
          "type": "address"
        }
      ],
      "stateMutability": "view",
      "type": "function"
    },
    {
      "inputs": [
        {
          "internalType": "string",
          "name": "name",
          "type": "string"
        }
      ],
      "name": "getRecord",
      "outputs": [
        {
          "components": [
            {
              "internalType": "string",
              "name": "name",
              "type": "string"
            },
            {
              "internalType": "address",
              "name": "addr",
              "type": "address"
            },
            {
              "internalType": "string",
              "name": "website",
              "type": "string"
            },
            {
              "internalType": "string",
              "name": "email",
              "type": "string"
            },
            {
              "internalType": "uint256",
              "name": "tokenId",
              "type": "uint256"
            }
          ],
          "internalType": "struct Domains.DomainRecord",
          "name": "",
          "type": "tuple"
        }
      ],
      "stateMutability": "view",
      "type": "function"
    },
    {
      "inputs": [
        {
          "internalType": "address",
          "name": "owner",
          "type": "address"
        },
        {
          "internalType": "address",
          "name": "operator",
          "type": "address"
        }
      ],
      "name": "isApprovedForAll",
      "outputs": [
        {
          "internalType": "bool",
          "name": "",
          "type": "bool"
        }
      ],
      "stateMutability": "view",
      "type": "function"
    },
    {
      "inputs": [],
      "name": "isOwner",
      "outputs": [
        {
          "internalType": "bool",
          "name": "",
          "type": "bool"
        }
      ],
      "stateMutability": "view",
      "type": "function"
    },
    {
      "inputs": [],
      "name": "name",
      "outputs": [
        {
          "internalType": "string",
          "name": "",
          "type": "string"
        }
      ],
      "stateMutability": "view",
      "type": "function"
    },
    {
      "inputs": [],
      "name": "owner",
      "outputs": [
        {
          "internalType": "address payable",
          "name": "",
          "type": "address"
        }
      ],
      "stateMutability": "view",
      "type": "function"
    },
    {
      "inputs": [
        {
          "internalType": "uint256",
          "name": "tokenId",
          "type": "uint256"
        }
      ],
      "name": "ownerOf",
      "outputs": [
        {
          "internalType": "address",
          "name": "",
          "type": "address"
        }
      ],
      "stateMutability": "view",
      "type": "function"
    },
    {
      "inputs": [
        {
          "internalType": "string",
          "name": "name",
          "type": "string"
        }
      ],
      "name": "price",
      "outputs": [
        {
          "internalType": "uint256",
          "name": "",
          "type": "uint256"
        }
      ],
      "stateMutability": "pure",
      "type": "function"
    },
    {
      "inputs": [
        {
          "internalType": "string",
          "name": "nameToRegister",
          "type": "string"
        }
      ],
      "name": "register",
      "outputs": [],
      "stateMutability": "payable",
      "type": "function"
    },
    {
      "inputs": [
        {
          "internalType": "address",
          "name": "from",
          "type": "address"
        },
        {
          "internalType": "address",
          "name": "to",
          "type": "address"
        },
        {
          "internalType": "uint256",
          "name": "tokenId",
          "type": "uint256"
        }
      ],
      "name": "safeTransferFrom",
      "outputs": [],
      "stateMutability": "nonpayable",
      "type": "function"
    },
    {
      "inputs": [
        {
          "internalType": "address",
          "name": "from",
          "type": "address"
        },
        {
          "internalType": "address",
          "name": "to",
          "type": "address"
        },
        {
          "internalType": "uint256",
          "name": "tokenId",
          "type": "uint256"
        },
        {
          "internalType": "bytes",
          "name": "data",
          "type": "bytes"
        }
      ],
      "name": "safeTransferFrom",
      "outputs": [],
      "stateMutability": "nonpayable",
      "type": "function"
    },
    {
      "inputs": [
        {
          "internalType": "address",
          "name": "operator",
          "type": "address"
        },
        {
          "internalType": "bool",
          "name": "approved",
          "type": "bool"
        }
      ],
      "name": "setApprovalForAll",
      "outputs": [],
      "stateMutability": "nonpayable",
      "type": "function"
    },
    {
      "inputs": [
        {
          "internalType": "string",
          "name": "name",
          "type": "string"
        },
        {
          "internalType": "string",
          "name": "_website",
          "type": "string"
        },
        {
          "internalType": "string",
          "name": "_email",
          "type": "string"
        }
      ],
      "name": "setRecord",
      "outputs": [],
      "stateMutability": "nonpayable",
      "type": "function"
    },
    {
      "inputs": [
        {
          "internalType": "bytes4",
          "name": "interfaceId",
          "type": "bytes4"
        }
      ],
      "name": "supportsInterface",
      "outputs": [
        {
          "internalType": "bool",
          "name": "",
          "type": "bool"
        }
      ],
      "stateMutability": "view",
      "type": "function"
    },
    {
      "inputs": [],
      "name": "symbol",
      "outputs": [
        {
          "internalType": "string",
          "name": "",
          "type": "string"
        }
      ],
      "stateMutability": "view",
      "type": "function"
    },
    {
      "inputs": [],
      "name": "tld",
      "outputs": [
        {
          "internalType": "string",
          "name": "",
          "type": "string"
        }
      ],
      "stateMutability": "view",
      "type": "function"
    },
    {
      "inputs": [
        {
          "internalType": "uint256",
          "name": "tokenId",
          "type": "uint256"
        }
      ],
      "name": "tokenURI",
      "outputs": [
        {
          "internalType": "string",
          "name": "",
          "type": "string"
        }
      ],
      "stateMutability": "view",
      "type": "function"
    },
    {
      "inputs": [
        {
          "internalType": "address",
          "name": "from",
          "type": "address"
        },
        {
          "internalType": "address",
          "name": "to",
          "type": "address"
        },
        {
          "internalType": "uint256",
          "name": "tokenId",
          "type": "uint256"
        }
      ],
      "name": "transferFrom",
      "outputs": [],
      "stateMutability": "nonpayable",
      "type": "function"
    },
    {
      "inputs": [
        {
          "internalType": "string",
          "name": "name",
          "type": "string"
        }
      ],
      "name": "valid",
      "outputs": [
        {
          "internalType": "bool",
          "name": "",
          "type": "bool"
        }
      ],
      "stateMutability": "pure",
      "type": "function"
    },
    {
      "inputs": [],
      "name": "withdraw",
      "outputs": [],
      "stateMutability": "nonpayable",
      "type": "function"
    }
  ],
  "bytecode": "0x6080604052604051806108a0016040528061086d815260200162005e6e61086d9139600b908051906020019062000038929190620002c8565b506040518060400160405280600d81526020017f3c2f746578743e3c2f7376673e00000000000000000000000000000000000000815250600c908051906020019062000086929190620002c8565b50604051620066db380380620066db8339818101604052810190620000ac919062000515565b6040518060400160405280600c81526020017f4c6f76656c79204e616d657300000000000000000000000000000000000000008152506040518060400160405280600481526020017f4c4f564500000000000000000000000000000000000000000000000000000000815250816000908051906020019062000130929190620002c8565b50806001908051906020019062000149929190620002c8565b50505033600d60006101000a81548173ffffffffffffffffffffffffffffffffffffffff021916908373ffffffffffffffffffffffffffffffffffffffff1602179055508060089080519060200190620001a5929190620002c8565b50620001f26040518060400160405280601881526020017f2573206e616d652073657276696365206465706c6f796564000000000000000081525082620001f960201b6200220c1760201c565b5062000663565b6200029b828260405160240162000212929190620005c3565b6040516020818303038152906040527f4b5c4277000000000000000000000000000000000000000000000000000000007bffffffffffffffffffffffffffffffffffffffffffffffffffffffff19166020820180517bffffffffffffffffffffffffffffffffffffffffffffffffffffffff83818316178352505050506200029f60201b60201c565b5050565b60008151905060006a636f6e736f6c652e6c6f679050602083016000808483855afa5050505050565b828054620002d6906200062d565b90600052602060002090601f016020900481019282620002fa576000855562000346565b82601f106200031557805160ff191683800117855562000346565b8280016001018555821562000346579182015b828111156200034557825182559160200191906001019062000328565b5b50905062000355919062000359565b5090565b5b80821115620003745760008160009055506001016200035a565b5090565b6000604051905090565b600080fd5b600080fd5b600080fd5b600080fd5b6000601f19601f8301169050919050565b7f4e487b7100000000000000000000000000000000000000000000000000000000600052604160045260246000fd5b620003e18262000396565b810181811067ffffffffffffffff82111715620004035762000402620003a7565b5b80604052505050565b60006200041862000378565b9050620004268282620003d6565b919050565b600067ffffffffffffffff821115620004495762000448620003a7565b5b620004548262000396565b9050602081019050919050565b60005b838110156200048157808201518184015260208101905062000464565b8381111562000491576000848401525b50505050565b6000620004ae620004a8846200042b565b6200040c565b905082815260208101848484011115620004cd57620004cc62000391565b5b620004da84828562000461565b509392505050565b600082601f830112620004fa57620004f96200038c565b5b81516200050c84826020860162000497565b91505092915050565b6000602082840312156200052e576200052d62000382565b5b600082015167ffffffffffffffff8111156200054f576200054e62000387565b5b6200055d84828501620004e2565b91505092915050565b600081519050919050565b600082825260208201905092915050565b60006200058f8262000566565b6200059b818562000571565b9350620005ad81856020860162000461565b620005b88162000396565b840191505092915050565b60006040820190508181036000830152620005df818562000582565b90508181036020830152620005f5818462000582565b90509392505050565b7f4e487b7100000000000000000000000000000000000000000000000000000000600052602260045260246000fd5b600060028204905060018216806200064657607f821691505b602082108114156200065d576200065c620005fe565b5b50919050565b6157fb80620006736000396000f3fe6080604052600436106101665760003560e01c80638da5cb5b116100d1578063b88d4fde1161008a578063c87b56dd11610064578063c87b56dd14610562578063e985e9c51461059f578063f2c298be146105dc578063fe2c6198146105f857610166565b8063b88d4fde146104bf578063bc9a853b146104e8578063bf40fac11461052557610166565b80638da5cb5b146103ad5780638f32d59b146103d857806395d89b41146104035780639791c0971461042e578063a22cb4651461046b578063a7f9fe721461049457610166565b80632d551432116101235780632d5514321461029f5780633ccfd60b146102ca57806342842e0e146102e15780636352211e1461030a57806370a0823114610347578063721c2edb1461038457610166565b806301ffc9a71461016b57806306fdde03146101a8578063081812fc146101d3578063095ea7b31461021057806311dd88451461023957806323b872dd14610276575b600080fd5b34801561017757600080fd5b50610192600480360381019061018d91906138fa565b610635565b60405161019f9190613942565b60405180910390f35b3480156101b457600080fd5b506101bd610717565b6040516101ca91906139f6565b60405180910390f35b3480156101df57600080fd5b506101fa60048036038101906101f59190613a4e565b6107a9565b6040516102079190613abc565b60405180910390f35b34801561021c57600080fd5b5061023760048036038101906102329190613b03565b6107ef565b005b34801561024557600080fd5b50610260600480360381019061025b9190613ba8565b610907565b60405161026d9190613ce1565b60405180910390f35b34801561028257600080fd5b5061029d60048036038101906102989190613d03565b610c06565b005b3480156102ab57600080fd5b506102b4610c66565b6040516102c191906139f6565b60405180910390f35b3480156102d657600080fd5b506102df610cf4565b005b3480156102ed57600080fd5b5061030860048036038101906103039190613d03565b610dba565b005b34801561031657600080fd5b50610331600480360381019061032c9190613a4e565b610dda565b60405161033e9190613abc565b60405180910390f35b34801561035357600080fd5b5061036e60048036038101906103699190613d56565b610e61565b60405161037b9190613d92565b60405180910390f35b34801561039057600080fd5b506103ab60048036038101906103a69190613dad565b610f19565b005b3480156103b957600080fd5b506103c261150e565b6040516103cf9190613e82565b60405180910390f35b3480156103e457600080fd5b506103ed611534565b6040516103fa9190613942565b60405180910390f35b34801561040f57600080fd5b5061041861158c565b60405161042591906139f6565b60405180910390f35b34801561043a57600080fd5b5061045560048036038101906104509190613ba8565b61161e565b6040516104629190613942565b60405180910390f35b34801561047757600080fd5b50610492600480360381019061048d9190613ec9565b6116d2565b005b3480156104a057600080fd5b506104a96116e8565b6040516104b6919061404f565b60405180910390f35b3480156104cb57600080fd5b506104e660048036038101906104e191906141a1565b61195d565b005b3480156104f457600080fd5b5061050f600480360381019061050a91906142c5565b6119bf565b60405161051c9190613942565b60405180910390f35b34801561053157600080fd5b5061054c60048036038101906105479190613ba8565b611a44565b6040516105599190613abc565b60405180910390f35b34801561056e57600080fd5b5061058960048036038101906105849190613a4e565b611b40565b60405161059691906139f6565b60405180910390f35b3480156105ab57600080fd5b506105c660048036038101906105c1919061430e565b611c53565b6040516105d39190613942565b60405180910390f35b6105f660048036038101906105f19190613ba8565b611ce7565b005b34801561060457600080fd5b5061061f600480360381019061061a9190613ba8565b612133565b60405161062c9190613d92565b60405180910390f35b60007f80ac58cd000000000000000000000000000000000000000000000000000000007bffffffffffffffffffffffffffffffffffffffffffffffffffffffff1916827bffffffffffffffffffffffffffffffffffffffffffffffffffffffff1916148061070057507f5b5e139f000000000000000000000000000000000000000000000000000000007bffffffffffffffffffffffffffffffffffffffffffffffffffffffff1916827bffffffffffffffffffffffffffffffffffffffffffffffffffffffff1916145b80610710575061070f826122a8565b5b9050919050565b6060600080546107269061437d565b80601f01602080910402602001604051908101604052809291908181526020018280546107529061437d565b801561079f5780601f106107745761010080835404028352916020019161079f565b820191906000526020600020905b81548152906001019060200180831161078257829003601f168201915b5050505050905090565b60006107b482612312565b6004600083815260200190815260200160002060009054906101000a900473ffffffffffffffffffffffffffffffffffffffff169050919050565b60006107fa82610dda565b90508073ffffffffffffffffffffffffffffffffffffffff168373ffffffffffffffffffffffffffffffffffffffff16141561086b576040517f08c379a000000000000000000000000000000000000000000000000000000000815260040161086290614421565b60405180910390fd5b8073ffffffffffffffffffffffffffffffffffffffff1661088a61235d565b73ffffffffffffffffffffffffffffffffffffffff1614806108b957506108b8816108b361235d565b611c53565b5b6108f8576040517f08c379a00000000000000000000000000000000000000000000000000000000081526004016108ef906144b3565b60405180910390fd5b6109028383612365565b505050565b61090f6137a6565b61095c83838080601f016020809104026020016040519081016040528093929190818152602001838380828437600081840152601f19601f820116905080830192505050505050506119bf565b61099b576040517f08c379a00000000000000000000000000000000000000000000000000000000081526004016109929061451f565b60405180910390fd5b6009600a84846040516109af92919061456f565b908152602001604051809103902054815481106109cf576109ce614588565b5b90600052602060002090600502016040518060a00160405290816000820180546109f89061437d565b80601f0160208091040260200160405190810160405280929190818152602001828054610a249061437d565b8015610a715780601f10610a4657610100808354040283529160200191610a71565b820191906000526020600020905b815481529060010190602001808311610a5457829003601f168201915b505050505081526020016001820160009054906101000a900473ffffffffffffffffffffffffffffffffffffffff1673ffffffffffffffffffffffffffffffffffffffff1673ffffffffffffffffffffffffffffffffffffffff168152602001600282018054610ae09061437d565b80601f0160208091040260200160405190810160405280929190818152602001828054610b0c9061437d565b8015610b595780601f10610b2e57610100808354040283529160200191610b59565b820191906000526020600020905b815481529060010190602001808311610b3c57829003601f168201915b50505050508152602001600382018054610b729061437d565b80601f0160208091040260200160405190810160405280929190818152602001828054610b9e9061437d565b8015610beb5780601f10610bc057610100808354040283529160200191610beb565b820191906000526020600020905b815481529060010190602001808311610bce57829003601f168201915b50505050508152602001600482015481525050905092915050565b610c17610c1161235d565b8261241e565b610c56576040517f08c379a0000000000000000000000000000000000000000000000000000000008152600401610c4d90614629565b60405180910390fd5b610c618383836124b3565b505050565b60088054610c739061437d565b80601f0160208091040260200160405190810160405280929190818152602001828054610c9f9061437d565b8015610cec5780601f10610cc157610100808354040283529160200191610cec565b820191906000526020600020905b815481529060010190602001808311610ccf57829003601f168201915b505050505081565b610cfc611534565b610d0557600080fd5b600047905060003373ffffffffffffffffffffffffffffffffffffffff1682604051610d309061467a565b60006040518083038185875af1925050503d8060008114610d6d576040519150601f19603f3d011682016040523d82523d6000602084013e610d72565b606091505b5050905080610db6576040517f08c379a0000000000000000000000000000000000000000000000000000000008152600401610dad90614701565b60405180910390fd5b5050565b610dd58383836040518060200160405280600081525061195d565b505050565b600080610de6836127ad565b9050600073ffffffffffffffffffffffffffffffffffffffff168173ffffffffffffffffffffffffffffffffffffffff161415610e58576040517f08c379a0000000000000000000000000000000000000000000000000000000008152600401610e4f9061476d565b60405180910390fd5b80915050919050565b60008073ffffffffffffffffffffffffffffffffffffffff168273ffffffffffffffffffffffffffffffffffffffff161415610ed2576040517f08c379a0000000000000000000000000000000000000000000000000000000008152600401610ec9906147ff565b60405180910390fd5b600360008373ffffffffffffffffffffffffffffffffffffffff1673ffffffffffffffffffffffffffffffffffffffff168152602001908152602001600020549050919050565b610f6686868080601f016020809104026020016040519081016040528093929190818152602001838380828437600081840152601f19601f820116905080830192505050505050506119bf565b610fa5576040517f08c379a0000000000000000000000000000000000000000000000000000000008152600401610f9c9061451f565b60405180910390fd5b60006009600a8888604051610fbb92919061456f565b90815260200160405180910390205481548110610fdb57610fda614588565b5b90600052602060002090600502016040518060a00160405290816000820180546110049061437d565b80601f01602080910402602001604051908101604052809291908181526020018280546110309061437d565b801561107d5780601f106110525761010080835404028352916020019161107d565b820191906000526020600020905b81548152906001019060200180831161106057829003601f168201915b505050505081526020016001820160009054906101000a900473ffffffffffffffffffffffffffffffffffffffff1673ffffffffffffffffffffffffffffffffffffffff1673ffffffffffffffffffffffffffffffffffffffff1681526020016002820180546110ec9061437d565b80601f01602080910402602001604051908101604052809291908181526020018280546111189061437d565b80156111655780601f1061113a57610100808354040283529160200191611165565b820191906000526020600020905b81548152906001019060200180831161114857829003601f168201915b5050505050815260200160038201805461117e9061437d565b80601f01602080910402602001604051908101604052809291908181526020018280546111aa9061437d565b80156111f75780601f106111cc576101008083540402835291602001916111f7565b820191906000526020600020905b8154815290600101906020018083116111da57829003601f168201915b5050505050815260200160048201548152505090506009600a888860405161122092919061456f565b908152602001604051809103902054815481106112405761123f614588565b5b906000526020600020906005020160010160009054906101000a900473ffffffffffffffffffffffffffffffffffffffff1673ffffffffffffffffffffffffffffffffffffffff163373ffffffffffffffffffffffffffffffffffffffff16146112d6576040517f82b4290000000000000000000000000000000000000000000000000000000000815260040160405180910390fd5b84848080601f016020809104026020016040519081016040528093929190818152602001838380828437600081840152601f19601f82011690508083019250505050505050816040018190525082828080601f016020809104026020016040519081016040528093929190818152602001838380828437600081840152601f19601f820116905080830192505050505050508160600181905250806009600a898960405161138592919061456f565b908152602001604051809103902054815481106113a5576113a4614588565b5b906000526020600020906005020160008201518160000190805190602001906113cf9291906137eb565b5060208201518160010160006101000a81548173ffffffffffffffffffffffffffffffffffffffff021916908373ffffffffffffffffffffffffffffffffffffffff16021790555060408201518160020190805190602001906114339291906137eb565b5060608201518160030190805190602001906114509291906137eb565b506080820151816004015590505060006114f4888888888080601f016020809104026020016040519081016040528093929190818152602001838380828437600081840152601f19601f8201169050808301925050505050505087878080601f016020809104026020016040519081016040528093929190818152602001838380828437600081840152601f19601f820116905080830192505050505050506127ea565b9050611504826080015182612908565b5050505050505050565b600d60009054906101000a900473ffffffffffffffffffffffffffffffffffffffff1681565b6000600d60009054906101000a900473ffffffffffffffffffffffffffffffffffffffff1673ffffffffffffffffffffffffffffffffffffffff163373ffffffffffffffffffffffffffffffffffffffff1614905090565b60606001805461159b9061437d565b80601f01602080910402602001604051908101604052809291908181526020018280546115c79061437d565b80156116145780601f106115e957610100808354040283529160200191611614565b820191906000526020600020905b8154815290600101906020018083116115f757829003601f168201915b5050505050905090565b6000600361166f84848080601f016020809104026020016040519081016040528093929190818152602001838380828437600081840152601f19601f8201169050808301925050505050505061297c565b101580156116ca5750600a6116c784848080601f016020809104026020016040519081016040528093929190818152602001838380828437600081840152601f19601f8201169050808301925050505050505061297c565b11155b905092915050565b6116e46116dd61235d565b8383612b31565b5050565b60606009805480602002602001604051908101604052809291908181526020016000905b8282101561195457838290600052602060002090600502016040518060a001604052908160008201805461173f9061437d565b80601f016020809104026020016040519081016040528092919081815260200182805461176b9061437d565b80156117b85780601f1061178d576101008083540402835291602001916117b8565b820191906000526020600020905b81548152906001019060200180831161179b57829003601f168201915b505050505081526020016001820160009054906101000a900473ffffffffffffffffffffffffffffffffffffffff1673ffffffffffffffffffffffffffffffffffffffff1673ffffffffffffffffffffffffffffffffffffffff1681526020016002820180546118279061437d565b80601f01602080910402602001604051908101604052809291908181526020018280546118539061437d565b80156118a05780601f10611875576101008083540402835291602001916118a0565b820191906000526020600020905b81548152906001019060200180831161188357829003601f168201915b505050505081526020016003820180546118b99061437d565b80601f01602080910402602001604051908101604052809291908181526020018280546118e59061437d565b80156119325780601f1061190757610100808354040283529160200191611932565b820191906000526020600020905b81548152906001019060200180831161191557829003601f168201915b505050505081526020016004820154815250508152602001906001019061170c565b50505050905090565b61196e61196861235d565b8361241e565b6119ad576040517f08c379a00000000000000000000000000000000000000000000000000000000081526004016119a490614629565b60405180910390fd5b6119b984848484612c9e565b50505050565b600080600090505b600980549050811015611a39578280519060200120600982815481106119f0576119ef614588565b5b9060005260206000209060050201600001604051611a0e91906148b3565b60405180910390201415611a26576001915050611a3f565b8080611a31906148f9565b9150506119c7565b50600090505b919050565b6000611a9383838080601f016020809104026020016040519081016040528093929190818152602001838380828437600081840152601f19601f820116905080830192505050505050506119bf565b611ad2576040517f08c379a0000000000000000000000000000000000000000000000000000000008152600401611ac99061451f565b60405180910390fd5b6009600a8484604051611ae692919061456f565b90815260200160405180910390205481548110611b0657611b05614588565b5b906000526020600020906005020160010160009054906101000a900473ffffffffffffffffffffffffffffffffffffffff16905092915050565b6060611b4b82612312565b6000600660008481526020019081526020016000208054611b6b9061437d565b80601f0160208091040260200160405190810160405280929190818152602001828054611b979061437d565b8015611be45780601f10611bb957610100808354040283529160200191611be4565b820191906000526020600020905b815481529060010190602001808311611bc757829003601f168201915b505050505090506000611bf5612cfa565b9050600081511415611c0b578192505050611c4e565b600082511115611c40578082604051602001611c28929190614973565b60405160208183030381529060405292505050611c4e565b611c4984612d11565b925050505b919050565b6000600560008473ffffffffffffffffffffffffffffffffffffffff1673ffffffffffffffffffffffffffffffffffffffff16815260200190815260200160002060008373ffffffffffffffffffffffffffffffffffffffff1673ffffffffffffffffffffffffffffffffffffffff16815260200190815260200160002060009054906101000a900460ff16905092915050565b611cf1828261161e565b611d345781816040517f7f19f48d000000000000000000000000000000000000000000000000000000008152600401611d2b9291906149c4565b60405180910390fd5b611d8182828080601f016020809104026020016040519081016040528093929190818152602001838380828437600081840152601f19601f820116905080830192505050505050506119bf565b15611db8576040517f3a81d6fc00000000000000000000000000000000000000000000000000000000815260040160405180910390fd5b6000611dc48383612133565b905080341015611e09576040517f08c379a0000000000000000000000000000000000000000000000000000000008152600401611e0090614a34565b60405180910390fd5b6000611e156007612d79565b90506000611e43858560405180602001604052806000815250604051806020016040528060008152506127ea565b9050611f376040518060600160405280603181526020016157956031913986868080601f016020809104026020016040519081016040528093929190818152602001838380828437600081840152601f19601f8201169050808301925050505050505060088054611eb39061437d565b80601f0160208091040260200160405190810160405280929190818152602001828054611edf9061437d565b8015611f2c5780601f10611f0157610100808354040283529160200191611f2c565b820191906000526020600020905b815481529060010190602001808311611f0f57829003601f168201915b505050505085612d87565b611f413383612e29565b611f4b8282612908565b60096040518060a0016040528087878080601f016020809104026020016040519081016040528093929190818152602001838380828437600081840152601f19601f8201169050808301925050505050505081526020013373ffffffffffffffffffffffffffffffffffffffff16815260200160405180602001604052806000815250815260200160405180602001604052806000815250815260200184815250908060018154018082558091505060019003906000526020600020906005020160009091909190915060008201518160000190805190602001906120319291906137eb565b5060208201518160010160006101000a81548173ffffffffffffffffffffffffffffffffffffffff021916908373ffffffffffffffffffffffffffffffffffffffff16021790555060408201518160020190805190602001906120959291906137eb565b5060608201518160030190805190602001906120b29291906137eb565b5060808201518160040155505060016009805490506120d19190614a54565b600a86866040516120e392919061456f565b908152602001604051809103902081905550817f2c90500f5a0e37f312128d28363dbc50008dce37edb0c7cf97f50e18c86221e260405160405180910390a261212c6007612e47565b5050505050565b60008061218384848080601f016020809104026020016040519081016040528093929190818152602001838380828437600081840152601f19601f8201169050808301925050505050505061297c565b9050600081116121c8576040517f08c379a00000000000000000000000000000000000000000000000000000000081526004016121bf90614ad4565b60405180910390fd5b60038114156121e15766b1a2bc2ec50000915050612206565b60048114156121fa57666a94d74f430000915050612206565b662386f26fc100009150505b92915050565b6122a48282604051602401612222929190614af4565b6040516020818303038152906040527f4b5c4277000000000000000000000000000000000000000000000000000000007bffffffffffffffffffffffffffffffffffffffffffffffffffffffff19166020820180517bffffffffffffffffffffffffffffffffffffffffffffffffffffffff8381831617835250505050612e5d565b5050565b60007f01ffc9a7000000000000000000000000000000000000000000000000000000007bffffffffffffffffffffffffffffffffffffffffffffffffffffffff1916827bffffffffffffffffffffffffffffffffffffffffffffffffffffffff1916149050919050565b61231b81612e86565b61235a576040517f08c379a00000000000000000000000000000000000000000000000000000000081526004016123519061476d565b60405180910390fd5b50565b600033905090565b816004600083815260200190815260200160002060006101000a81548173ffffffffffffffffffffffffffffffffffffffff021916908373ffffffffffffffffffffffffffffffffffffffff160217905550808273ffffffffffffffffffffffffffffffffffffffff166123d883610dda565b73ffffffffffffffffffffffffffffffffffffffff167f8c5be1e5ebec7d5bd14f71427d1e84f3dd0314c0f7b2291e5b200ac8c7c3b92560405160405180910390a45050565b60008061242a83610dda565b90508073ffffffffffffffffffffffffffffffffffffffff168473ffffffffffffffffffffffffffffffffffffffff16148061246c575061246b8185611c53565b5b806124aa57508373ffffffffffffffffffffffffffffffffffffffff16612492846107a9565b73ffffffffffffffffffffffffffffffffffffffff16145b91505092915050565b8273ffffffffffffffffffffffffffffffffffffffff166124d382610dda565b73ffffffffffffffffffffffffffffffffffffffff1614612529576040517f08c379a000000000000000000000000000000000000000000000000000000000815260040161252090614b9d565b60405180910390fd5b600073ffffffffffffffffffffffffffffffffffffffff168273ffffffffffffffffffffffffffffffffffffffff161415612599576040517f08c379a000000000000000000000000000000000000000000000000000000000815260040161259090614c2f565b60405180910390fd5b6125a68383836001612ec7565b8273ffffffffffffffffffffffffffffffffffffffff166125c682610dda565b73ffffffffffffffffffffffffffffffffffffffff161461261c576040517f08c379a000000000000000000000000000000000000000000000000000000000815260040161261390614b9d565b60405180910390fd5b6004600082815260200190815260200160002060006101000a81549073ffffffffffffffffffffffffffffffffffffffff02191690556001600360008573ffffffffffffffffffffffffffffffffffffffff1673ffffffffffffffffffffffffffffffffffffffff168152602001908152602001600020600082825403925050819055506001600360008473ffffffffffffffffffffffffffffffffffffffff1673ffffffffffffffffffffffffffffffffffffffff16815260200190815260200160002060008282540192505081905550816002600083815260200190815260200160002060006101000a81548173ffffffffffffffffffffffffffffffffffffffff021916908373ffffffffffffffffffffffffffffffffffffffff160217905550808273ffffffffffffffffffffffffffffffffffffffff168473ffffffffffffffffffffffffffffffffffffffff167fddf252ad1be2c89b69c2b068fc378daa952ba7f163c4a11628f55a4df523b3ef60405160405180910390a46127a88383836001612fed565b505050565b60006002600083815260200190815260200160002060009054906101000a900473ffffffffffffffffffffffffffffffffffffffff169050919050565b606060008585600860405160200161280493929190614d2f565b60405160208183030381529060405290506000600b82600c60405160200161282e93929190614d60565b6040516020818303038152906040529050600061288e88888080601f016020809104026020016040519081016040528093929190818152602001838380828437600081840152601f19601f8201169050808301925050505050505061297c565b9050600061289b82612ff3565b905060006128d7856128ac866130cb565b848b8b6040516020016128c395949392919061516d565b6040516020818303038152906040526130cb565b9050806040516020016128ea919061527d565b60405160208183030381529060405295505050505050949350505050565b61291182612e86565b612950576040517f08c379a000000000000000000000000000000000000000000000000000000000815260040161294790615311565b60405180910390fd5b806006600084815260200190815260200160002090805190602001906129779291906137eb565b505050565b60008060008084519050600092505b80821015612b265760008583815181106129a8576129a7614588565b5b602001015160f81c60f81b9050608060f81b817effffffffffffffffffffffffffffffffffffffffffffffffffffffffffffff191610156129f7576001836129f09190615331565b9250612b12565b60e060f81b817effffffffffffffffffffffffffffffffffffffffffffffffffffffffffffff19161015612a3957600283612a329190615331565b9250612b11565b60f060f81b817effffffffffffffffffffffffffffffffffffffffffffffffffffffffffffff19161015612a7b57600383612a749190615331565b9250612b10565b60f8801b817effffffffffffffffffffffffffffffffffffffffffffffffffffffffffffff19161015612abc57600483612ab59190615331565b9250612b0f565b60fc60f81b817effffffffffffffffffffffffffffffffffffffffffffffffffffffffffffff19161015612afe57600583612af79190615331565b9250612b0e565b600683612b0b9190615331565b92505b5b5b5b5b508280612b1e906148f9565b93505061298b565b829350505050919050565b8173ffffffffffffffffffffffffffffffffffffffff168373ffffffffffffffffffffffffffffffffffffffff161415612ba0576040517f08c379a0000000000000000000000000000000000000000000000000000000008152600401612b97906153d3565b60405180910390fd5b80600560008573ffffffffffffffffffffffffffffffffffffffff1673ffffffffffffffffffffffffffffffffffffffff16815260200190815260200160002060008473ffffffffffffffffffffffffffffffffffffffff1673ffffffffffffffffffffffffffffffffffffffff16815260200190815260200160002060006101000a81548160ff0219169083151502179055508173ffffffffffffffffffffffffffffffffffffffff168373ffffffffffffffffffffffffffffffffffffffff167f17307eab39ab6107e8899845ad3d59bd9653f200f220920489ca2b5937696c3183604051612c919190613942565b60405180910390a3505050565b612ca98484846124b3565b612cb58484848461322f565b612cf4576040517f08c379a0000000000000000000000000000000000000000000000000000000008152600401612ceb90615465565b60405180910390fd5b50505050565b606060405180602001604052806000815250905090565b6060612d1c82612312565b6000612d26612cfa565b90506000815111612d465760405180602001604052806000815250612d71565b80612d5084612ff3565b604051602001612d61929190614973565b6040516020818303038152906040525b915050919050565b600081600001549050919050565b612e2384848484604051602401612da19493929190615485565b6040516020818303038152906040527f8eafb02b000000000000000000000000000000000000000000000000000000007bffffffffffffffffffffffffffffffffffffffffffffffffffffffff19166020820180517bffffffffffffffffffffffffffffffffffffffffffffffffffffffff8381831617835250505050612e5d565b50505050565b612e438282604051806020016040528060008152506133b7565b5050565b6001816000016000828254019250508190555050565b60008151905060006a636f6e736f6c652e6c6f679050602083016000808483855afa5050505050565b60008073ffffffffffffffffffffffffffffffffffffffff16612ea8836127ad565b73ffffffffffffffffffffffffffffffffffffffff1614159050919050565b6001811115612fe757600073ffffffffffffffffffffffffffffffffffffffff168473ffffffffffffffffffffffffffffffffffffffff1614612f5b5780600360008673ffffffffffffffffffffffffffffffffffffffff1673ffffffffffffffffffffffffffffffffffffffff1681526020019081526020016000206000828254612f539190614a54565b925050819055505b600073ffffffffffffffffffffffffffffffffffffffff168373ffffffffffffffffffffffffffffffffffffffff1614612fe65780600360008573ffffffffffffffffffffffffffffffffffffffff1673ffffffffffffffffffffffffffffffffffffffff1681526020019081526020016000206000828254612fde9190615331565b925050819055505b5b50505050565b50505050565b60606000600161300284613412565b01905060008167ffffffffffffffff81111561302157613020614076565b5b6040519080825280601f01601f1916602001820160405280156130535781602001600182028036833780820191505090505b509050600082602001820190505b6001156130c0578080600190039150507f3031323334353637383961626364656600000000000000000000000000000000600a86061a8153600a85816130aa576130a96154df565b5b04945060008514156130bb576130c0565b613061565b819350505050919050565b60606000825114156130ee5760405180602001604052806000815250905061322a565b6000604051806060016040528060408152602001615755604091399050600060036002855161311d9190615331565b613127919061550e565b6004613133919061553f565b67ffffffffffffffff81111561314c5761314b614076565b5b6040519080825280601f01601f19166020018201604052801561317e5781602001600182028036833780820191505090505b509050600182016020820185865187015b808210156131ea576003820191508151603f8160121c168501518453600184019350603f81600c1c168501518453600184019350603f8160061c168501518453600184019350603f811685015184536001840193505061318f565b5050600386510660018114613206576002811461321957613221565b603d6001830353603d6002830353613221565b603d60018303535b50505080925050505b919050565b60006132508473ffffffffffffffffffffffffffffffffffffffff16613565565b156133aa578373ffffffffffffffffffffffffffffffffffffffff1663150b7a0261327961235d565b8786866040518563ffffffff1660e01b815260040161329b94939291906155ee565b6020604051808303816000875af19250505080156132d757506040513d601f19601f820116820180604052508101906132d4919061564f565b60015b61335a573d8060008114613307576040519150601f19603f3d011682016040523d82523d6000602084013e61330c565b606091505b50600081511415613352576040517f08c379a000000000000000000000000000000000000000000000000000000000815260040161334990615465565b60405180910390fd5b805181602001fd5b63150b7a0260e01b7bffffffffffffffffffffffffffffffffffffffffffffffffffffffff1916817bffffffffffffffffffffffffffffffffffffffffffffffffffffffff1916149150506133af565b600190505b949350505050565b6133c18383613588565b6133ce600084848461322f565b61340d576040517f08c379a000000000000000000000000000000000000000000000000000000000815260040161340490615465565b60405180910390fd5b505050565b600080600090507a184f03e93ff9f4daa797ed6e38ed64bf6a1f0100000000000000008310613470577a184f03e93ff9f4daa797ed6e38ed64bf6a1f0100000000000000008381613466576134656154df565b5b0492506040810190505b6d04ee2d6d415b85acef810000000083106134ad576d04ee2d6d415b85acef810000000083816134a3576134a26154df565b5b0492506020810190505b662386f26fc1000083106134dc57662386f26fc1000083816134d2576134d16154df565b5b0492506010810190505b6305f5e1008310613505576305f5e10083816134fb576134fa6154df565b5b0492506008810190505b612710831061352a5761271083816135205761351f6154df565b5b0492506004810190505b6064831061354d5760648381613543576135426154df565b5b0492506002810190505b600a831061355c576001810190505b80915050919050565b6000808273ffffffffffffffffffffffffffffffffffffffff163b119050919050565b600073ffffffffffffffffffffffffffffffffffffffff168273ffffffffffffffffffffffffffffffffffffffff1614156135f8576040517f08c379a00000000000000000000000000000000000000000000000000000000081526004016135ef906156c8565b60405180910390fd5b61360181612e86565b15613641576040517f08c379a000000000000000000000000000000000000000000000000000000000815260040161363890615734565b60405180910390fd5b61364f600083836001612ec7565b61365881612e86565b15613698576040517f08c379a000000000000000000000000000000000000000000000000000000000815260040161368f90615734565b60405180910390fd5b6001600360008473ffffffffffffffffffffffffffffffffffffffff1673ffffffffffffffffffffffffffffffffffffffff16815260200190815260200160002060008282540192505081905550816002600083815260200190815260200160002060006101000a81548173ffffffffffffffffffffffffffffffffffffffff021916908373ffffffffffffffffffffffffffffffffffffffff160217905550808273ffffffffffffffffffffffffffffffffffffffff16600073ffffffffffffffffffffffffffffffffffffffff167fddf252ad1be2c89b69c2b068fc378daa952ba7f163c4a11628f55a4df523b3ef60405160405180910390a46137a2600083836001612fed565b5050565b6040518060a0016040528060608152602001600073ffffffffffffffffffffffffffffffffffffffff1681526020016060815260200160608152602001600081525090565b8280546137f79061437d565b90600052602060002090601f0160209004810192826138195760008555613860565b82601f1061383257805160ff1916838001178555613860565b82800160010185558215613860579182015b8281111561385f578251825591602001919060010190613844565b5b50905061386d9190613871565b5090565b5b8082111561388a576000816000905550600101613872565b5090565b6000604051905090565b600080fd5b600080fd5b60007fffffffff0000000000000000000000000000000000000000000000000000000082169050919050565b6138d7816138a2565b81146138e257600080fd5b50565b6000813590506138f4816138ce565b92915050565b6000602082840312156139105761390f613898565b5b600061391e848285016138e5565b91505092915050565b60008115159050919050565b61393c81613927565b82525050565b60006020820190506139576000830184613933565b92915050565b600081519050919050565b600082825260208201905092915050565b60005b8381101561399757808201518184015260208101905061397c565b838111156139a6576000848401525b50505050565b6000601f19601f8301169050919050565b60006139c88261395d565b6139d28185613968565b93506139e2818560208601613979565b6139eb816139ac565b840191505092915050565b60006020820190508181036000830152613a1081846139bd565b905092915050565b6000819050919050565b613a2b81613a18565b8114613a3657600080fd5b50565b600081359050613a4881613a22565b92915050565b600060208284031215613a6457613a63613898565b5b6000613a7284828501613a39565b91505092915050565b600073ffffffffffffffffffffffffffffffffffffffff82169050919050565b6000613aa682613a7b565b9050919050565b613ab681613a9b565b82525050565b6000602082019050613ad16000830184613aad565b92915050565b613ae081613a9b565b8114613aeb57600080fd5b50565b600081359050613afd81613ad7565b92915050565b60008060408385031215613b1a57613b19613898565b5b6000613b2885828601613aee565b9250506020613b3985828601613a39565b9150509250929050565b600080fd5b600080fd5b600080fd5b60008083601f840112613b6857613b67613b43565b5b8235905067ffffffffffffffff811115613b8557613b84613b48565b5b602083019150836001820283011115613ba157613ba0613b4d565b5b9250929050565b60008060208385031215613bbf57613bbe613898565b5b600083013567ffffffffffffffff811115613bdd57613bdc61389d565b5b613be985828601613b52565b92509250509250929050565b600082825260208201905092915050565b6000613c118261395d565b613c1b8185613bf5565b9350613c2b818560208601613979565b613c34816139ac565b840191505092915050565b613c4881613a9b565b82525050565b613c5781613a18565b82525050565b600060a0830160008301518482036000860152613c7a8282613c06565b9150506020830151613c8f6020860182613c3f565b5060408301518482036040860152613ca78282613c06565b91505060608301518482036060860152613cc18282613c06565b9150506080830151613cd66080860182613c4e565b508091505092915050565b60006020820190508181036000830152613cfb8184613c5d565b905092915050565b600080600060608486031215613d1c57613d1b613898565b5b6000613d2a86828701613aee565b9350506020613d3b86828701613aee565b9250506040613d4c86828701613a39565b9150509250925092565b600060208284031215613d6c57613d6b613898565b5b6000613d7a84828501613aee565b91505092915050565b613d8c81613a18565b82525050565b6000602082019050613da76000830184613d83565b92915050565b60008060008060008060608789031215613dca57613dc9613898565b5b600087013567ffffffffffffffff811115613de857613de761389d565b5b613df489828a01613b52565b9650965050602087013567ffffffffffffffff811115613e1757613e1661389d565b5b613e2389828a01613b52565b9450945050604087013567ffffffffffffffff811115613e4657613e4561389d565b5b613e5289828a01613b52565b92509250509295509295509295565b6000613e6c82613a7b565b9050919050565b613e7c81613e61565b82525050565b6000602082019050613e976000830184613e73565b92915050565b613ea681613927565b8114613eb157600080fd5b50565b600081359050613ec381613e9d565b92915050565b60008060408385031215613ee057613edf613898565b5b6000613eee85828601613aee565b9250506020613eff85828601613eb4565b9150509250929050565b600081519050919050565b600082825260208201905092915050565b6000819050602082019050919050565b600060a0830160008301518482036000860152613f528282613c06565b9150506020830151613f676020860182613c3f565b5060408301518482036040860152613f7f8282613c06565b91505060608301518482036060860152613f998282613c06565b9150506080830151613fae6080860182613c4e565b508091505092915050565b6000613fc58383613f35565b905092915050565b6000602082019050919050565b6000613fe582613f09565b613fef8185613f14565b93508360208202850161400185613f25565b8060005b8581101561403d578484038952815161401e8582613fb9565b945061402983613fcd565b925060208a01995050600181019050614005565b50829750879550505050505092915050565b600060208201905081810360008301526140698184613fda565b905092915050565b600080fd5b7f4e487b7100000000000000000000000000000000000000000000000000000000600052604160045260246000fd5b6140ae826139ac565b810181811067ffffffffffffffff821117156140cd576140cc614076565b5b80604052505050565b60006140e061388e565b90506140ec82826140a5565b919050565b600067ffffffffffffffff82111561410c5761410b614076565b5b614115826139ac565b9050602081019050919050565b82818337600083830152505050565b600061414461413f846140f1565b6140d6565b9050828152602081018484840111156141605761415f614071565b5b61416b848285614122565b509392505050565b600082601f83011261418857614187613b43565b5b8135614198848260208601614131565b91505092915050565b600080600080608085870312156141bb576141ba613898565b5b60006141c987828801613aee565b94505060206141da87828801613aee565b93505060406141eb87828801613a39565b925050606085013567ffffffffffffffff81111561420c5761420b61389d565b5b61421887828801614173565b91505092959194509250565b600067ffffffffffffffff82111561423f5761423e614076565b5b614248826139ac565b9050602081019050919050565b600061426861426384614224565b6140d6565b90508281526020810184848401111561428457614283614071565b5b61428f848285614122565b509392505050565b600082601f8301126142ac576142ab613b43565b5b81356142bc848260208601614255565b91505092915050565b6000602082840312156142db576142da613898565b5b600082013567ffffffffffffffff8111156142f9576142f861389d565b5b61430584828501614297565b91505092915050565b6000806040838503121561432557614324613898565b5b600061433385828601613aee565b925050602061434485828601613aee565b9150509250929050565b7f4e487b7100000000000000000000000000000000000000000000000000000000600052602260045260246000fd5b6000600282049050600182168061439557607f821691505b602082108114156143a9576143a861434e565b5b50919050565b7f4552433732313a20617070726f76616c20746f2063757272656e74206f776e6560008201527f7200000000000000000000000000000000000000000000000000000000000000602082015250565b600061440b602183613968565b9150614416826143af565b604082019050919050565b6000602082019050818103600083015261443a816143fe565b9050919050565b7f4552433732313a20617070726f76652063616c6c6572206973206e6f7420746f60008201527f6b656e206f776e6572206f7220617070726f76656420666f7220616c6c000000602082015250565b600061449d603d83613968565b91506144a882614441565b604082019050919050565b600060208201905081810360008301526144cc81614490565b9050919050565b7f556e6b6e6f776e20646f6d61696e000000000000000000000000000000000000600082015250565b6000614509600e83613968565b9150614514826144d3565b602082019050919050565b60006020820190508181036000830152614538816144fc565b9050919050565b600081905092915050565b6000614556838561453f565b9350614563838584614122565b82840190509392505050565b600061457c82848661454a565b91508190509392505050565b7f4e487b7100000000000000000000000000000000000000000000000000000000600052603260045260246000fd5b7f4552433732313a2063616c6c6572206973206e6f7420746f6b656e206f776e6560008201527f72206f7220617070726f76656400000000000000000000000000000000000000602082015250565b6000614613602d83613968565b915061461e826145b7565b604082019050919050565b6000602082019050818103600083015261464281614606565b9050919050565b600081905092915050565b50565b6000614664600083614649565b915061466f82614654565b600082019050919050565b600061468582614657565b9150819050919050565b7f4661696c656420746f2077697468647261772062616c616e63652066726f6d2060008201527f636f6e7472616374000000000000000000000000000000000000000000000000602082015250565b60006146eb602883613968565b91506146f68261468f565b604082019050919050565b6000602082019050818103600083015261471a816146de565b9050919050565b7f4552433732313a20696e76616c696420746f6b656e2049440000000000000000600082015250565b6000614757601883613968565b915061476282614721565b602082019050919050565b600060208201905081810360008301526147868161474a565b9050919050565b7f4552433732313a2061646472657373207a65726f206973206e6f74206120766160008201527f6c6964206f776e65720000000000000000000000000000000000000000000000602082015250565b60006147e9602983613968565b91506147f48261478d565b604082019050919050565b60006020820190508181036000830152614818816147dc565b9050919050565b60008190508160005260206000209050919050565b600081546148418161437d565b61484b8186614649565b945060018216600081146148665760018114614877576148aa565b60ff198316865281860193506148aa565b6148808561481f565b60005b838110156148a257815481890152600182019150602081019050614883565b838801955050505b50505092915050565b60006148bf8284614834565b915081905092915050565b7f4e487b7100000000000000000000000000000000000000000000000000000000600052601160045260246000fd5b600061490482613a18565b91507fffffffffffffffffffffffffffffffffffffffffffffffffffffffffffffffff821415614937576149366148ca565b5b600182019050919050565b600061494d8261395d565b614957818561453f565b9350614967818560208601613979565b80840191505092915050565b600061497f8285614942565b915061498b8284614942565b91508190509392505050565b60006149a38385613968565b93506149b0838584614122565b6149b9836139ac565b840190509392505050565b600060208201905081810360008301526149df818486614997565b90509392505050565b7f496e73756666696369656e742066756e64732072656365697665640000000000600082015250565b6000614a1e601b83613968565b9150614a29826149e8565b602082019050919050565b60006020820190508181036000830152614a4d81614a11565b9050919050565b6000614a5f82613a18565b9150614a6a83613a18565b925082821015614a7d57614a7c6148ca565b5b828203905092915050565b7f496e76616c6964206c656e677468000000000000000000000000000000000000600082015250565b6000614abe600e83613968565b9150614ac982614a88565b602082019050919050565b60006020820190508181036000830152614aed81614ab1565b9050919050565b60006040820190508181036000830152614b0e81856139bd565b90508181036020830152614b2281846139bd565b90509392505050565b7f4552433732313a207472616e736665722066726f6d20696e636f72726563742060008201527f6f776e6572000000000000000000000000000000000000000000000000000000602082015250565b6000614b87602583613968565b9150614b9282614b2b565b604082019050919050565b60006020820190508181036000830152614bb681614b7a565b9050919050565b7f4552433732313a207472616e7366657220746f20746865207a65726f2061646460008201527f7265737300000000000000000000000000000000000000000000000000000000602082015250565b6000614c19602483613968565b9150614c2482614bbd565b604082019050919050565b60006020820190508181036000830152614c4881614c0c565b9050919050565b7f2e00000000000000000000000000000000000000000000000000000000000000600082015250565b6000614c8560018361453f565b9150614c9082614c4f565b600182019050919050565b60008190508160005260206000209050919050565b60008154614cbd8161437d565b614cc7818661453f565b94506001821660008114614ce25760018114614cf357614d26565b60ff19831686528186019350614d26565b614cfc85614c9b565b60005b83811015614d1e57815481890152600182019150602081019050614cff565b838801955050505b50505092915050565b6000614d3c82858761454a565b9150614d4782614c78565b9150614d538284614cb0565b9150819050949350505050565b6000614d6c8286614cb0565b9150614d788285614942565b9150614d848284614cb0565b9150819050949350505050565b7f7b226e616d65223a202200000000000000000000000000000000000000000000600082015250565b6000614dc7600a8361453f565b9150614dd282614d91565b600a82019050919050565b7f222c20226465736372697074696f6e223a20224120646f6d61696e206f6e207460008201527f6865204c6f7665204e616d652053657276696365222c2022696d616765223a2060208201527f22646174613a696d6167652f7376672b786d6c3b6261736536342c0000000000604082015250565b6000614e5f605b8361453f565b9150614e6a82614ddd565b605b82019050919050565b7f222c226c656e677468223a220000000000000000000000000000000000000000600082015250565b6000614eab600c8361453f565b9150614eb682614e75565b600c82019050919050565b7f222c000000000000000000000000000000000000000000000000000000000000600082015250565b6000614ef760028361453f565b9150614f0282614ec1565b600282019050919050565b7f2261747472696275746573223a205b0000000000000000000000000000000000600082015250565b6000614f43600f8361453f565b9150614f4e82614f0d565b600f82019050919050565b7f7b2274726169745f74797065223a202257656273697465222c202276616c756560008201527f223a202200000000000000000000000000000000000000000000000000000000602082015250565b6000614fb560248361453f565b9150614fc082614f59565b602482019050919050565b7f227d2c0000000000000000000000000000000000000000000000000000000000600082015250565b600061500160038361453f565b915061500c82614fcb565b600382019050919050565b7f7b2274726169745f74797065223a2022456d61696c222c202276616c7565223a60008201527f2022000000000000000000000000000000000000000000000000000000000000602082015250565b600061507360228361453f565b915061507e82615017565b602282019050919050565b7f227d000000000000000000000000000000000000000000000000000000000000600082015250565b60006150bf60028361453f565b91506150ca82615089565b600282019050919050565b7f5d00000000000000000000000000000000000000000000000000000000000000600082015250565b600061510b60018361453f565b9150615116826150d5565b600182019050919050565b7f7d00000000000000000000000000000000000000000000000000000000000000600082015250565b600061515760018361453f565b915061516282615121565b600182019050919050565b600061517882614dba565b91506151848288614942565b915061518f82614e52565b915061519b8287614942565b91506151a682614e9e565b91506151b28286614942565b91506151bd82614eea565b91506151c882614f36565b91506151d382614fa8565b91506151df8285614942565b91506151ea82614ff4565b91506151f582615066565b91506152018284614942565b915061520c826150b2565b9150615217826150fe565b91506152228261514a565b91508190509695505050505050565b7f646174613a6170706c69636174696f6e2f6a736f6e3b6261736536342c000000600082015250565b6000615267601d8361453f565b915061527282615231565b601d82019050919050565b60006152888261525a565b91506152948284614942565b915081905092915050565b7f45524337323155524953746f726167653a2055524920736574206f66206e6f6e60008201527f6578697374656e7420746f6b656e000000000000000000000000000000000000602082015250565b60006152fb602e83613968565b91506153068261529f565b604082019050919050565b6000602082019050818103600083015261532a816152ee565b9050919050565b600061533c82613a18565b915061534783613a18565b9250827fffffffffffffffffffffffffffffffffffffffffffffffffffffffffffffffff0382111561537c5761537b6148ca565b5b828201905092915050565b7f4552433732313a20617070726f766520746f2063616c6c657200000000000000600082015250565b60006153bd601983613968565b91506153c882615387565b602082019050919050565b600060208201905081810360008301526153ec816153b0565b9050919050565b7f4552433732313a207472616e7366657220746f206e6f6e20455243373231526560008201527f63656976657220696d706c656d656e7465720000000000000000000000000000602082015250565b600061544f603283613968565b915061545a826153f3565b604082019050919050565b6000602082019050818103600083015261547e81615442565b9050919050565b6000608082019050818103600083015261549f81876139bd565b905081810360208301526154b381866139bd565b905081810360408301526154c781856139bd565b90506154d66060830184613d83565b95945050505050565b7f4e487b7100000000000000000000000000000000000000000000000000000000600052601260045260246000fd5b600061551982613a18565b915061552483613a18565b925082615534576155336154df565b5b828204905092915050565b600061554a82613a18565b915061555583613a18565b9250817fffffffffffffffffffffffffffffffffffffffffffffffffffffffffffffffff048311821515161561558e5761558d6148ca565b5b828202905092915050565b600081519050919050565b600082825260208201905092915050565b60006155c082615599565b6155ca81856155a4565b93506155da818560208601613979565b6155e3816139ac565b840191505092915050565b60006080820190506156036000830187613aad565b6156106020830186613aad565b61561d6040830185613d83565b818103606083015261562f81846155b5565b905095945050505050565b600081519050615649816138ce565b92915050565b60006020828403121561566557615664613898565b5b60006156738482850161563a565b91505092915050565b7f4552433732313a206d696e7420746f20746865207a65726f2061646472657373600082015250565b60006156b2602083613968565b91506156bd8261567c565b602082019050919050565b600060208201905081810360008301526156e1816156a5565b9050919050565b7f4552433732313a20746f6b656e20616c7265616479206d696e74656400000000600082015250565b600061571e601c83613968565b9150615729826156e8565b602082019050919050565b6000602082019050818103600083015261574d81615711565b905091905056fe4142434445464748494a4b4c4d4e4f505152535455565758595a6162636465666768696a6b6c6d6e6f707172737475767778797a303132333435363738392b2f5265676973746572696e672025732e2573206f6e2074686520636f6e7472616374207769746820746f6b656e4944202573a264697066735822122051a6a0640982b96ab070caccf1038f2c17852a3f3df917dc9949ad8a1a56175d64736f6c634300080a00333c73766720786d6c6e733d22687474703a2f2f7777772e77332e6f72672f323030302f737667222077696474683d2232373022206865696768743d22323730222066696c6c3d226e6f6e65223e3c706174682066696c6c3d2275726c282342292220643d224d302030683237307632373048307a222f3e3c646566733e3c66696c7465722069643d22412220636f6c6f722d696e746572706f6c6174696f6e2d66696c746572733d2273524742222066696c746572556e6974733d227573657253706163654f6e55736522206865696768743d22323730222077696474683d22323730223e3c666544726f70536861646f772064783d2230222064793d22312220737464446576696174696f6e3d22322220666c6f6f642d6f7061636974793d222e323235222077696474683d223230302522206865696768743d2232303025222f3e3c2f66696c7465723e3c2f646566733e3c7061746820643d224d37322e3836332034322e393439632d2e3636382d2e3338372d312e3432362d2e35392d322e3139372d2e3539732d312e3532392e3230342d322e3139372e35396c2d31302e30383120362e3033322d362e383520332e3933342d31302e30383120362e303332632d2e3636382e3338372d312e3432362e35392d322e3139372e3539732d312e3532392d2e3230342d322e3139372d2e35396c2d382e3031332d342e37323161342e353220342e35322030203020312d312e3538392d312e363136632d2e3338342d2e3636352d2e3539342d312e3431382d2e3630382d322e313837762d392e3331632d2e3031332d2e3737352e3138352d312e3533382e3537322d322e32303861342e323520342e323520302030203120312e3632352d312e3539356c372e3838342d342e3539632e3636382d2e33383720312e3432362d2e353920322e3139372d2e353973312e3532392e32303420322e3139372e35396c372e38383420342e353961342e353220342e353220302030203120312e35383920312e363136632e3338342e3636352e35393420312e3431382e36303820322e31383776362e3033326c362e38352d342e303635762d362e303332632e3031332d2e3737352d2e3138352d312e3533382d2e3537322d322e32303861342e323520342e32352030203020302d312e3632352d312e3539354c34312e3435362032342e3539632d2e3636382d2e3338372d312e3432362d2e35392d322e3139372d2e3539732d312e3532392e3230342d322e3139372e35396c2d31342e38363420382e36353561342e323520342e32352030203020302d312e36323520312e353935632d2e3338372e36372d2e35383520312e3433342d2e35373220322e3230387631372e343431632d2e3031332e3737352e31383520312e3533382e35373220322e32303861342e323520342e323520302030203020312e36323520312e3539356c31342e38363420382e363535632e3636382e33383720312e3432362e353920322e3139372e353973312e3532392d2e32303420322e3139372d2e35396c31302e3038312d352e39303120362e38352d342e3036352031302e3038312d352e393031632e3636382d2e33383720312e3432362d2e353920322e3139372d2e353973312e3532392e32303420322e3139372e35396c372e38383420342e353961342e353220342e353220302030203120312e35383920312e363136632e3338342e3636352e35393420312e3431382e36303820322e31383776392e333131632e3031332e3737352d2e31383520312e3533382d2e35373220322e32303861342e323520342e32352030203020312d312e36323520312e3539356c2d372e38383420342e373231632d2e3636382e3338372d312e3432362e35392d322e3139372e3539732d312e3532392d2e3230342d322e3139372d2e35396c2d372e3838342d342e353961342e353220342e35322030203020312d312e3538392d312e363136632d2e3338352d2e3636352d2e3539342d312e3431382d2e3630382d322e313837762d362e3033326c2d362e383520342e30363576362e303332632d2e3031332e3737352e31383520312e3533382e35373220322e32303861342e323520342e323520302030203020312e36323520312e3539356c31342e38363420382e363535632e3636382e33383720312e3432362e353920322e3139372e353973312e3532392d2e32303420322e3139372d2e35396c31342e3836342d382e363535632e3635372d2e33393420312e3230342d2e393520312e3538392d312e363136732e3539342d312e3431382e3630392d322e3138375635352e353338632e3031332d2e3737352d2e3138352d312e3533382d2e3537322d322e32303861342e323520342e32352030203020302d312e3632352d312e3539356c2d31342e3939332d382e3738367a222066696c6c3d2223666666222f3e3c646566733e3c6c696e6561724772616469656e742069643d2242222078313d2230222079313d2230222078323d22323730222079323d2232373022206772616469656e74556e6974733d227573657253706163654f6e557365223e3c73746f702073746f702d636f6c6f723d2223424134333433222f3e3c73746f70206f66667365743d22302e37222073746f702d636f6c6f723d2223313930423238222073746f702d6f7061636974793d222e3939222f3e3c2f6c696e6561724772616469656e743e3c2f646566733e3c7465787420783d2232322e352220793d223233312220666f6e742d73697a653d223232222066696c6c3d2223666666222066696c7465723d2275726c282341292220666f6e742d66616d696c793d22506c7573204a616b617274612053616e732c44656a6156752053616e732c4e6f746f20436f6c6f7220456d6f6a692c4170706c6520436f6c6f7220456d6f6a692c73616e732d73657269662220666f6e742d7765696768743d22626f6c64223e",
  "linkReferences": {},
  "deployedLinkReferences": {}
}