{
  "_format": "hh-sol-artifact-1",
  "contractName": "Domains",
  "sourceName": "contracts/Domains.sol",
  "abi": [
    {
      "inputs": [
        {
          "internalType": "string",
          "name": "_tld",
          "type": "string"
        }
      ],
      "stateMutability": "payable",
      "type": "constructor"
    },
    {
      "inputs": [],
      "name": "AlreadyRegistered",
      "type": "error"
    },
    {
      "inputs": [
        {
          "internalType": "string",
          "name": "name",
          "type": "string"
        }
      ],
      "name": "InvalidName",
      "type": "error"
    },
    {
      "inputs": [],
      "name": "Unauthorized",
      "type": "error"
    },
    {
      "anonymous": false,
      "inputs": [
        {
          "indexed": true,
          "internalType": "address",
          "name": "owner",
          "type": "address"
        },
        {
          "indexed": true,
          "internalType": "address",
          "name": "approved",
          "type": "address"
        },
        {
          "indexed": true,
          "internalType": "uint256",
          "name": "tokenId",
          "type": "uint256"
        }
      ],
      "name": "Approval",
      "type": "event"
    },
    {
      "anonymous": false,
      "inputs": [
        {
          "indexed": true,
          "internalType": "address",
          "name": "owner",
          "type": "address"
        },
        {
          "indexed": true,
          "internalType": "address",
          "name": "operator",
          "type": "address"
        },
        {
          "indexed": false,
          "internalType": "bool",
          "name": "approved",
          "type": "bool"
        }
      ],
      "name": "ApprovalForAll",
      "type": "event"
    },
    {
      "anonymous": false,
      "inputs": [
        {
          "indexed": true,
          "internalType": "uint256",
          "name": "_tokenId",
          "type": "uint256"
        }
      ],
      "name": "DomainRegistered",
      "type": "event"
    },
    {
      "anonymous": false,
      "inputs": [
        {
          "indexed": true,
          "internalType": "address",
          "name": "from",
          "type": "address"
        },
        {
          "indexed": true,
          "internalType": "address",
          "name": "to",
          "type": "address"
        },
        {
          "indexed": true,
          "internalType": "uint256",
          "name": "tokenId",
          "type": "uint256"
        }
      ],
      "name": "Transfer",
      "type": "event"
    },
    {
      "inputs": [
        {
          "internalType": "address",
          "name": "to",
          "type": "address"
        },
        {
          "internalType": "uint256",
          "name": "tokenId",
          "type": "uint256"
        }
      ],
      "name": "approve",
      "outputs": [],
      "stateMutability": "nonpayable",
      "type": "function"
    },
    {
      "inputs": [
        {
          "internalType": "address",
          "name": "owner",
          "type": "address"
        }
      ],
      "name": "balanceOf",
      "outputs": [
        {
          "internalType": "uint256",
          "name": "",
          "type": "uint256"
        }
      ],
      "stateMutability": "view",
      "type": "function"
    },
    {
      "inputs": [
        {
          "internalType": "string",
          "name": "name",
          "type": "string"
        }
      ],
      "name": "domainIsRegistered",
      "outputs": [
        {
          "internalType": "bool",
          "name": "",
          "type": "bool"
        }
      ],
      "stateMutability": "view",
      "type": "function"
    },
    {
      "inputs": [
        {
          "internalType": "string",
          "name": "name",
          "type": "string"
        }
      ],
      "name": "getAddress",
      "outputs": [
        {
          "internalType": "address",
          "name": "",
          "type": "address"
        }
      ],
      "stateMutability": "view",
      "type": "function"
    },
    {
      "inputs": [],
      "name": "getAllRecords",
      "outputs": [
        {
          "components": [
            {
              "internalType": "string",
              "name": "name",
              "type": "string"
            },
            {
              "internalType": "address",
              "name": "addr",
              "type": "address"
            },
            {
              "internalType": "string",
              "name": "website",
              "type": "string"
            },
            {
              "internalType": "string",
              "name": "email",
              "type": "string"
            },
            {
              "internalType": "uint256",
              "name": "tokenId",
              "type": "uint256"
            }
          ],
          "internalType": "struct Domains.DomainRecord[]",
          "name": "",
          "type": "tuple[]"
        }
      ],
      "stateMutability": "view",
      "type": "function"
    },
    {
      "inputs": [
        {
          "internalType": "uint256",
          "name": "tokenId",
          "type": "uint256"
        }
      ],
      "name": "getApproved",
      "outputs": [
        {
          "internalType": "address",
          "name": "",
          "type": "address"
        }
      ],
      "stateMutability": "view",
      "type": "function"
    },
    {
      "inputs": [
        {
          "internalType": "string",
          "name": "name",
          "type": "string"
        },
        {
          "internalType": "string",
          "name": "website",
          "type": "string"
        },
        {
          "internalType": "string",
          "name": "email",
          "type": "string"
        }
      ],
      "name": "getJsonMetadata",
      "outputs": [
        {
          "internalType": "string",
          "name": "",
          "type": "string"
        }
      ],
      "stateMutability": "view",
      "type": "function"
    },
    {
      "inputs": [
        {
          "internalType": "string",
          "name": "name",
          "type": "string"
        }
      ],
      "name": "getRecord",
      "outputs": [
        {
          "components": [
            {
              "internalType": "string",
              "name": "name",
              "type": "string"
            },
            {
              "internalType": "address",
              "name": "addr",
              "type": "address"
            },
            {
              "internalType": "string",
              "name": "website",
              "type": "string"
            },
            {
              "internalType": "string",
              "name": "email",
              "type": "string"
            },
            {
              "internalType": "uint256",
              "name": "tokenId",
              "type": "uint256"
            }
          ],
          "internalType": "struct Domains.DomainRecord",
          "name": "",
          "type": "tuple"
        }
      ],
      "stateMutability": "view",
      "type": "function"
    },
    {
      "inputs": [
        {
          "internalType": "address",
          "name": "owner",
          "type": "address"
        },
        {
          "internalType": "address",
          "name": "operator",
          "type": "address"
        }
      ],
      "name": "isApprovedForAll",
      "outputs": [
        {
          "internalType": "bool",
          "name": "",
          "type": "bool"
        }
      ],
      "stateMutability": "view",
      "type": "function"
    },
    {
      "inputs": [],
      "name": "isOwner",
      "outputs": [
        {
          "internalType": "bool",
          "name": "",
          "type": "bool"
        }
      ],
      "stateMutability": "view",
      "type": "function"
    },
    {
      "inputs": [],
      "name": "name",
      "outputs": [
        {
          "internalType": "string",
          "name": "",
          "type": "string"
        }
      ],
      "stateMutability": "view",
      "type": "function"
    },
    {
      "inputs": [],
      "name": "owner",
      "outputs": [
        {
          "internalType": "address payable",
          "name": "",
          "type": "address"
        }
      ],
      "stateMutability": "view",
      "type": "function"
    },
    {
      "inputs": [
        {
          "internalType": "uint256",
          "name": "tokenId",
          "type": "uint256"
        }
      ],
      "name": "ownerOf",
      "outputs": [
        {
          "internalType": "address",
          "name": "",
          "type": "address"
        }
      ],
      "stateMutability": "view",
      "type": "function"
    },
    {
      "inputs": [
        {
          "internalType": "string",
          "name": "name",
          "type": "string"
        }
      ],
      "name": "price",
      "outputs": [
        {
          "internalType": "uint256",
          "name": "",
          "type": "uint256"
        }
      ],
      "stateMutability": "pure",
      "type": "function"
    },
    {
      "inputs": [
        {
          "internalType": "string",
          "name": "nameToRegister",
          "type": "string"
        }
      ],
      "name": "register",
      "outputs": [],
      "stateMutability": "payable",
      "type": "function"
    },
    {
      "inputs": [
        {
          "internalType": "address",
          "name": "from",
          "type": "address"
        },
        {
          "internalType": "address",
          "name": "to",
          "type": "address"
        },
        {
          "internalType": "uint256",
          "name": "tokenId",
          "type": "uint256"
        }
      ],
      "name": "safeTransferFrom",
      "outputs": [],
      "stateMutability": "nonpayable",
      "type": "function"
    },
    {
      "inputs": [
        {
          "internalType": "address",
          "name": "from",
          "type": "address"
        },
        {
          "internalType": "address",
          "name": "to",
          "type": "address"
        },
        {
          "internalType": "uint256",
          "name": "tokenId",
          "type": "uint256"
        },
        {
          "internalType": "bytes",
          "name": "data",
          "type": "bytes"
        }
      ],
      "name": "safeTransferFrom",
      "outputs": [],
      "stateMutability": "nonpayable",
      "type": "function"
    },
    {
      "inputs": [
        {
          "internalType": "address",
          "name": "operator",
          "type": "address"
        },
        {
          "internalType": "bool",
          "name": "approved",
          "type": "bool"
        }
      ],
      "name": "setApprovalForAll",
      "outputs": [],
      "stateMutability": "nonpayable",
      "type": "function"
    },
    {
      "inputs": [
        {
          "internalType": "string",
          "name": "name",
          "type": "string"
        },
        {
          "internalType": "string",
          "name": "_website",
          "type": "string"
        },
        {
          "internalType": "string",
          "name": "_email",
          "type": "string"
        }
      ],
      "name": "setRecord",
      "outputs": [],
      "stateMutability": "nonpayable",
      "type": "function"
    },
    {
      "inputs": [
        {
          "internalType": "bytes4",
          "name": "interfaceId",
          "type": "bytes4"
        }
      ],
      "name": "supportsInterface",
      "outputs": [
        {
          "internalType": "bool",
          "name": "",
          "type": "bool"
        }
      ],
      "stateMutability": "view",
      "type": "function"
    },
    {
      "inputs": [],
      "name": "symbol",
      "outputs": [
        {
          "internalType": "string",
          "name": "",
          "type": "string"
        }
      ],
      "stateMutability": "view",
      "type": "function"
    },
    {
      "inputs": [],
      "name": "tld",
      "outputs": [
        {
          "internalType": "string",
          "name": "",
          "type": "string"
        }
      ],
      "stateMutability": "view",
      "type": "function"
    },
    {
      "inputs": [
        {
          "internalType": "uint256",
          "name": "tokenId",
          "type": "uint256"
        }
      ],
      "name": "tokenURI",
      "outputs": [
        {
          "internalType": "string",
          "name": "",
          "type": "string"
        }
      ],
      "stateMutability": "view",
      "type": "function"
    },
    {
      "inputs": [
        {
          "internalType": "address",
          "name": "from",
          "type": "address"
        },
        {
          "internalType": "address",
          "name": "to",
          "type": "address"
        },
        {
          "internalType": "uint256",
          "name": "tokenId",
          "type": "uint256"
        }
      ],
      "name": "transferFrom",
      "outputs": [],
      "stateMutability": "nonpayable",
      "type": "function"
    },
    {
      "inputs": [
        {
          "internalType": "string",
          "name": "name",
          "type": "string"
        }
      ],
      "name": "valid",
      "outputs": [
        {
          "internalType": "bool",
          "name": "",
          "type": "bool"
        }
      ],
      "stateMutability": "pure",
      "type": "function"
    },
    {
      "inputs": [],
      "name": "withdraw",
      "outputs": [],
      "stateMutability": "nonpayable",
      "type": "function"
    }
  ],
  "bytecode": "0x6080604052604051806108a0016040528061086d815260200162005f2561086d9139600b908051906020019062000038929190620002c8565b506040518060400160405280600d81526020017f3c2f746578743e3c2f7376673e00000000000000000000000000000000000000815250600c908051906020019062000086929190620002c8565b5060405162006792380380620067928339818101604052810190620000ac919062000515565b6040518060400160405280600c81526020017f4c6f76656c79204e616d657300000000000000000000000000000000000000008152506040518060400160405280600481526020017f4c4f564500000000000000000000000000000000000000000000000000000000815250816000908051906020019062000130929190620002c8565b50806001908051906020019062000149929190620002c8565b50505033600d60006101000a81548173ffffffffffffffffffffffffffffffffffffffff021916908373ffffffffffffffffffffffffffffffffffffffff1602179055508060089080519060200190620001a5929190620002c8565b50620001f26040518060400160405280601881526020017f2573206e616d652073657276696365206465706c6f796564000000000000000081525082620001f960201b620023351760201c565b5062000663565b6200029b828260405160240162000212929190620005c3565b6040516020818303038152906040527f4b5c4277000000000000000000000000000000000000000000000000000000007bffffffffffffffffffffffffffffffffffffffffffffffffffffffff19166020820180517bffffffffffffffffffffffffffffffffffffffffffffffffffffffff83818316178352505050506200029f60201b60201c565b5050565b60008151905060006a636f6e736f6c652e6c6f679050602083016000808483855afa5050505050565b828054620002d6906200062d565b90600052602060002090601f016020900481019282620002fa576000855562000346565b82601f106200031557805160ff191683800117855562000346565b8280016001018555821562000346579182015b828111156200034557825182559160200191906001019062000328565b5b50905062000355919062000359565b5090565b5b80821115620003745760008160009055506001016200035a565b5090565b6000604051905090565b600080fd5b600080fd5b600080fd5b600080fd5b6000601f19601f8301169050919050565b7f4e487b7100000000000000000000000000000000000000000000000000000000600052604160045260246000fd5b620003e18262000396565b810181811067ffffffffffffffff82111715620004035762000402620003a7565b5b80604052505050565b60006200041862000378565b9050620004268282620003d6565b919050565b600067ffffffffffffffff821115620004495762000448620003a7565b5b620004548262000396565b9050602081019050919050565b60005b838110156200048157808201518184015260208101905062000464565b8381111562000491576000848401525b50505050565b6000620004ae620004a8846200042b565b6200040c565b905082815260208101848484011115620004cd57620004cc62000391565b5b620004da84828562000461565b509392505050565b600082601f830112620004fa57620004f96200038c565b5b81516200050c84826020860162000497565b91505092915050565b6000602082840312156200052e576200052d62000382565b5b600082015167ffffffffffffffff8111156200054f576200054e62000387565b5b6200055d84828501620004e2565b91505092915050565b600081519050919050565b600082825260208201905092915050565b60006200058f8262000566565b6200059b818562000571565b9350620005ad81856020860162000461565b620005b88162000396565b840191505092915050565b60006040820190508181036000830152620005df818562000582565b90508181036020830152620005f5818462000582565b90509392505050565b7f4e487b7100000000000000000000000000000000000000000000000000000000600052602260045260246000fd5b600060028204905060018216806200064657607f821691505b602082108114156200065d576200065c620005fe565b5b50919050565b6158b280620006736000396000f3fe6080604052600436106101815760003560e01c80638f32d59b116100d1578063bc9a853b1161008a578063d7f74e5e11610064578063d7f74e5e146105ba578063e985e9c5146105f7578063f2c298be14610634578063fe2c61981461065057610181565b8063bc9a853b14610503578063bf40fac114610540578063c87b56dd1461057d57610181565b80638f32d59b146103f357806395d89b411461041e5780639791c09714610449578063a22cb46514610486578063a7f9fe72146104af578063b88d4fde146104da57610181565b80632d5514321161013e5780636352211e116101185780636352211e1461032557806370a0823114610362578063721c2edb1461039f5780638da5cb5b146103c857610181565b80632d551432146102ba5780633ccfd60b146102e557806342842e0e146102fc57610181565b806301ffc9a71461018657806306fdde03146101c3578063081812fc146101ee578063095ea7b31461022b57806311dd88451461025457806323b872dd14610291575b600080fd5b34801561019257600080fd5b506101ad60048036038101906101a89190613905565b61068d565b6040516101ba919061394d565b60405180910390f35b3480156101cf57600080fd5b506101d861076f565b6040516101e59190613a01565b60405180910390f35b3480156101fa57600080fd5b5061021560048036038101906102109190613a59565b610801565b6040516102229190613ac7565b60405180910390f35b34801561023757600080fd5b50610252600480360381019061024d9190613b0e565b610847565b005b34801561026057600080fd5b5061027b60048036038101906102769190613bb3565b61095f565b6040516102889190613cec565b60405180910390f35b34801561029d57600080fd5b506102b860048036038101906102b39190613d0e565b610c5e565b005b3480156102c657600080fd5b506102cf610cbe565b6040516102dc9190613a01565b60405180910390f35b3480156102f157600080fd5b506102fa610d4c565b005b34801561030857600080fd5b50610323600480360381019061031e9190613d0e565b610e12565b005b34801561033157600080fd5b5061034c60048036038101906103479190613a59565b610e32565b6040516103599190613ac7565b60405180910390f35b34801561036e57600080fd5b5061038960048036038101906103849190613d61565b610eb9565b6040516103969190613d9d565b60405180910390f35b3480156103ab57600080fd5b506103c660048036038101906103c19190613db8565b610f71565b005b3480156103d457600080fd5b506103dd611519565b6040516103ea9190613e8d565b60405180910390f35b3480156103ff57600080fd5b5061040861153f565b604051610415919061394d565b60405180910390f35b34801561042a57600080fd5b50610433611597565b6040516104409190613a01565b60405180910390f35b34801561045557600080fd5b50610470600480360381019061046b9190613bb3565b611629565b60405161047d919061394d565b60405180910390f35b34801561049257600080fd5b506104ad60048036038101906104a89190613ed4565b6116dd565b005b3480156104bb57600080fd5b506104c46116f3565b6040516104d1919061405a565b60405180910390f35b3480156104e657600080fd5b5061050160048036038101906104fc91906141ac565b611968565b005b34801561050f57600080fd5b5061052a600480360381019061052591906142d0565b6119ca565b604051610537919061394d565b60405180910390f35b34801561054c57600080fd5b5061056760048036038101906105629190613bb3565b611a4f565b6040516105749190613ac7565b60405180910390f35b34801561058957600080fd5b506105a4600480360381019061059f9190613a59565b611b4b565b6040516105b19190613a01565b60405180910390f35b3480156105c657600080fd5b506105e160048036038101906105dc9190614319565b611c5e565b6040516105ee9190613a01565b60405180910390f35b34801561060357600080fd5b5061061e600480360381019061061991906143c5565b611d7c565b60405161062b919061394d565b60405180910390f35b61064e60048036038101906106499190613bb3565b611e10565b005b34801561065c57600080fd5b5061067760048036038101906106729190613bb3565b61225c565b6040516106849190613d9d565b60405180910390f35b60007f80ac58cd000000000000000000000000000000000000000000000000000000007bffffffffffffffffffffffffffffffffffffffffffffffffffffffff1916827bffffffffffffffffffffffffffffffffffffffffffffffffffffffff1916148061075857507f5b5e139f000000000000000000000000000000000000000000000000000000007bffffffffffffffffffffffffffffffffffffffffffffffffffffffff1916827bffffffffffffffffffffffffffffffffffffffffffffffffffffffff1916145b806107685750610767826123d1565b5b9050919050565b60606000805461077e90614434565b80601f01602080910402602001604051908101604052809291908181526020018280546107aa90614434565b80156107f75780601f106107cc576101008083540402835291602001916107f7565b820191906000526020600020905b8154815290600101906020018083116107da57829003601f168201915b5050505050905090565b600061080c8261243b565b6004600083815260200190815260200160002060009054906101000a900473ffffffffffffffffffffffffffffffffffffffff169050919050565b600061085282610e32565b90508073ffffffffffffffffffffffffffffffffffffffff168373ffffffffffffffffffffffffffffffffffffffff1614156108c3576040517f08c379a00000000000000000000000000000000000000000000000000000000081526004016108ba906144d8565b60405180910390fd5b8073ffffffffffffffffffffffffffffffffffffffff166108e2612486565b73ffffffffffffffffffffffffffffffffffffffff16148061091157506109108161090b612486565b611d7c565b5b610950576040517f08c379a00000000000000000000000000000000000000000000000000000000081526004016109479061456a565b60405180910390fd5b61095a838361248e565b505050565b6109676137b1565b6109b483838080601f016020809104026020016040519081016040528093929190818152602001838380828437600081840152601f19601f820116905080830192505050505050506119ca565b6109f3576040517f08c379a00000000000000000000000000000000000000000000000000000000081526004016109ea906145d6565b60405180910390fd5b6009600a8484604051610a07929190614626565b90815260200160405180910390205481548110610a2757610a2661463f565b5b90600052602060002090600502016040518060a0016040529081600082018054610a5090614434565b80601f0160208091040260200160405190810160405280929190818152602001828054610a7c90614434565b8015610ac95780601f10610a9e57610100808354040283529160200191610ac9565b820191906000526020600020905b815481529060010190602001808311610aac57829003601f168201915b505050505081526020016001820160009054906101000a900473ffffffffffffffffffffffffffffffffffffffff1673ffffffffffffffffffffffffffffffffffffffff1673ffffffffffffffffffffffffffffffffffffffff168152602001600282018054610b3890614434565b80601f0160208091040260200160405190810160405280929190818152602001828054610b6490614434565b8015610bb15780601f10610b8657610100808354040283529160200191610bb1565b820191906000526020600020905b815481529060010190602001808311610b9457829003601f168201915b50505050508152602001600382018054610bca90614434565b80601f0160208091040260200160405190810160405280929190818152602001828054610bf690614434565b8015610c435780601f10610c1857610100808354040283529160200191610c43565b820191906000526020600020905b815481529060010190602001808311610c2657829003601f168201915b50505050508152602001600482015481525050905092915050565b610c6f610c69612486565b82612547565b610cae576040517f08c379a0000000000000000000000000000000000000000000000000000000008152600401610ca5906146e0565b60405180910390fd5b610cb98383836125dc565b505050565b60088054610ccb90614434565b80601f0160208091040260200160405190810160405280929190818152602001828054610cf790614434565b8015610d445780601f10610d1957610100808354040283529160200191610d44565b820191906000526020600020905b815481529060010190602001808311610d2757829003601f168201915b505050505081565b610d5461153f565b610d5d57600080fd5b600047905060003373ffffffffffffffffffffffffffffffffffffffff1682604051610d8890614731565b60006040518083038185875af1925050503d8060008114610dc5576040519150601f19603f3d011682016040523d82523d6000602084013e610dca565b606091505b5050905080610e0e576040517f08c379a0000000000000000000000000000000000000000000000000000000008152600401610e05906147b8565b60405180910390fd5b5050565b610e2d83838360405180602001604052806000815250611968565b505050565b600080610e3e836128d6565b9050600073ffffffffffffffffffffffffffffffffffffffff168173ffffffffffffffffffffffffffffffffffffffff161415610eb0576040517f08c379a0000000000000000000000000000000000000000000000000000000008152600401610ea790614824565b60405180910390fd5b80915050919050565b60008073ffffffffffffffffffffffffffffffffffffffff168273ffffffffffffffffffffffffffffffffffffffff161415610f2a576040517f08c379a0000000000000000000000000000000000000000000000000000000008152600401610f21906148b6565b60405180910390fd5b600360008373ffffffffffffffffffffffffffffffffffffffff1673ffffffffffffffffffffffffffffffffffffffff168152602001908152602001600020549050919050565b610fbe86868080601f016020809104026020016040519081016040528093929190818152602001838380828437600081840152601f19601f820116905080830192505050505050506119ca565b610ffd576040517f08c379a0000000000000000000000000000000000000000000000000000000008152600401610ff4906145d6565b60405180910390fd5b60006009600a8888604051611013929190614626565b908152602001604051809103902054815481106110335761103261463f565b5b90600052602060002090600502016040518060a001604052908160008201805461105c90614434565b80601f016020809104026020016040519081016040528092919081815260200182805461108890614434565b80156110d55780601f106110aa576101008083540402835291602001916110d5565b820191906000526020600020905b8154815290600101906020018083116110b857829003601f168201915b505050505081526020016001820160009054906101000a900473ffffffffffffffffffffffffffffffffffffffff1673ffffffffffffffffffffffffffffffffffffffff1673ffffffffffffffffffffffffffffffffffffffff16815260200160028201805461114490614434565b80601f016020809104026020016040519081016040528092919081815260200182805461117090614434565b80156111bd5780601f10611192576101008083540402835291602001916111bd565b820191906000526020600020905b8154815290600101906020018083116111a057829003601f168201915b505050505081526020016003820180546111d690614434565b80601f016020809104026020016040519081016040528092919081815260200182805461120290614434565b801561124f5780601f106112245761010080835404028352916020019161124f565b820191906000526020600020905b81548152906001019060200180831161123257829003601f168201915b5050505050815260200160048201548152505090506009600a8888604051611278929190614626565b908152602001604051809103902054815481106112985761129761463f565b5b906000526020600020906005020160010160009054906101000a900473ffffffffffffffffffffffffffffffffffffffff1673ffffffffffffffffffffffffffffffffffffffff163373ffffffffffffffffffffffffffffffffffffffff161461132e576040517f82b4290000000000000000000000000000000000000000000000000000000000815260040160405180910390fd5b84848080601f016020809104026020016040519081016040528093929190818152602001838380828437600081840152601f19601f820116905080830192505050505050508160400181905250806009600a8989604051611390929190614626565b908152602001604051809103902054815481106113b0576113af61463f565b5b906000526020600020906005020160008201518160000190805190602001906113da9291906137f6565b5060208201518160010160006101000a81548173ffffffffffffffffffffffffffffffffffffffff021916908373ffffffffffffffffffffffffffffffffffffffff160217905550604082015181600201908051906020019061143e9291906137f6565b50606082015181600301908051906020019061145b9291906137f6565b506080820151816004015590505060006114ff888888888080601f016020809104026020016040519081016040528093929190818152602001838380828437600081840152601f19601f8201169050808301925050505050505087878080601f016020809104026020016040519081016040528093929190818152602001838380828437600081840152601f19601f82011690508083019250505050505050611c5e565b905061150f826080015182612913565b5050505050505050565b600d60009054906101000a900473ffffffffffffffffffffffffffffffffffffffff1681565b6000600d60009054906101000a900473ffffffffffffffffffffffffffffffffffffffff1673ffffffffffffffffffffffffffffffffffffffff163373ffffffffffffffffffffffffffffffffffffffff1614905090565b6060600180546115a690614434565b80601f01602080910402602001604051908101604052809291908181526020018280546115d290614434565b801561161f5780601f106115f45761010080835404028352916020019161161f565b820191906000526020600020905b81548152906001019060200180831161160257829003601f168201915b5050505050905090565b6000600361167a84848080601f016020809104026020016040519081016040528093929190818152602001838380828437600081840152601f19601f82011690508083019250505050505050612987565b101580156116d55750600a6116d284848080601f016020809104026020016040519081016040528093929190818152602001838380828437600081840152601f19601f82011690508083019250505050505050612987565b11155b905092915050565b6116ef6116e8612486565b8383612b3c565b5050565b60606009805480602002602001604051908101604052809291908181526020016000905b8282101561195f57838290600052602060002090600502016040518060a001604052908160008201805461174a90614434565b80601f016020809104026020016040519081016040528092919081815260200182805461177690614434565b80156117c35780601f10611798576101008083540402835291602001916117c3565b820191906000526020600020905b8154815290600101906020018083116117a657829003601f168201915b505050505081526020016001820160009054906101000a900473ffffffffffffffffffffffffffffffffffffffff1673ffffffffffffffffffffffffffffffffffffffff1673ffffffffffffffffffffffffffffffffffffffff16815260200160028201805461183290614434565b80601f016020809104026020016040519081016040528092919081815260200182805461185e90614434565b80156118ab5780601f10611880576101008083540402835291602001916118ab565b820191906000526020600020905b81548152906001019060200180831161188e57829003601f168201915b505050505081526020016003820180546118c490614434565b80601f01602080910402602001604051908101604052809291908181526020018280546118f090614434565b801561193d5780601f106119125761010080835404028352916020019161193d565b820191906000526020600020905b81548152906001019060200180831161192057829003601f168201915b5050505050815260200160048201548152505081526020019060010190611717565b50505050905090565b611979611973612486565b83612547565b6119b8576040517f08c379a00000000000000000000000000000000000000000000000000000000081526004016119af906146e0565b60405180910390fd5b6119c484848484612ca9565b50505050565b600080600090505b600980549050811015611a44578280519060200120600982815481106119fb576119fa61463f565b5b9060005260206000209060050201600001604051611a19919061496a565b60405180910390201415611a31576001915050611a4a565b8080611a3c906149b0565b9150506119d2565b50600090505b919050565b6000611a9e83838080601f016020809104026020016040519081016040528093929190818152602001838380828437600081840152601f19601f820116905080830192505050505050506119ca565b611add576040517f08c379a0000000000000000000000000000000000000000000000000000000008152600401611ad4906145d6565b60405180910390fd5b6009600a8484604051611af1929190614626565b90815260200160405180910390205481548110611b1157611b1061463f565b5b906000526020600020906005020160010160009054906101000a900473ffffffffffffffffffffffffffffffffffffffff16905092915050565b6060611b568261243b565b6000600660008481526020019081526020016000208054611b7690614434565b80601f0160208091040260200160405190810160405280929190818152602001828054611ba290614434565b8015611bef5780601f10611bc457610100808354040283529160200191611bef565b820191906000526020600020905b815481529060010190602001808311611bd257829003601f168201915b505050505090506000611c00612d05565b9050600081511415611c16578192505050611c59565b600082511115611c4b578082604051602001611c33929190614a2a565b60405160208183030381529060405292505050611c59565b611c5484612d1c565b925050505b919050565b6060600085856008604051602001611c7893929190614b2e565b60405160208183030381529060405290506000600b82600c604051602001611ca293929190614b5f565b60405160208183030381529060405290506000611d0288888080601f016020809104026020016040519081016040528093929190818152602001838380828437600081840152601f19601f82011690508083019250505050505050612987565b90506000611d0f82612d84565b90506000611d4b85611d2086612e5c565b848b8b604051602001611d37959493929190614f6c565b604051602081830303815290604052612e5c565b905080604051602001611d5e919061507c565b60405160208183030381529060405295505050505050949350505050565b6000600560008473ffffffffffffffffffffffffffffffffffffffff1673ffffffffffffffffffffffffffffffffffffffff16815260200190815260200160002060008373ffffffffffffffffffffffffffffffffffffffff1673ffffffffffffffffffffffffffffffffffffffff16815260200190815260200160002060009054906101000a900460ff16905092915050565b611e1a8282611629565b611e5d5781816040517f7f19f48d000000000000000000000000000000000000000000000000000000008152600401611e549291906150cb565b60405180910390fd5b611eaa82828080601f016020809104026020016040519081016040528093929190818152602001838380828437600081840152601f19601f820116905080830192505050505050506119ca565b15611ee1576040517f3a81d6fc00000000000000000000000000000000000000000000000000000000815260040160405180910390fd5b6000611eed838361225c565b905080341015611f32576040517f08c379a0000000000000000000000000000000000000000000000000000000008152600401611f299061513b565b60405180910390fd5b6000611f3e6007612fc0565b90506000611f6c85856040518060200160405280600081525060405180602001604052806000815250611c5e565b905061206060405180606001604052806031815260200161584c6031913986868080601f016020809104026020016040519081016040528093929190818152602001838380828437600081840152601f19601f8201169050808301925050505050505060088054611fdc90614434565b80601f016020809104026020016040519081016040528092919081815260200182805461200890614434565b80156120555780601f1061202a57610100808354040283529160200191612055565b820191906000526020600020905b81548152906001019060200180831161203857829003601f168201915b505050505085612fce565b61206a3383613070565b6120748282612913565b60096040518060a0016040528087878080601f016020809104026020016040519081016040528093929190818152602001838380828437600081840152601f19601f8201169050808301925050505050505081526020013373ffffffffffffffffffffffffffffffffffffffff168152602001604051806020016040528060008152508152602001604051806020016040528060008152508152602001848152509080600181540180825580915050600190039060005260206000209060050201600090919091909150600082015181600001908051906020019061215a9291906137f6565b5060208201518160010160006101000a81548173ffffffffffffffffffffffffffffffffffffffff021916908373ffffffffffffffffffffffffffffffffffffffff16021790555060408201518160020190805190602001906121be9291906137f6565b5060608201518160030190805190602001906121db9291906137f6565b5060808201518160040155505060016009805490506121fa919061515b565b600a868660405161220c929190614626565b908152602001604051809103902081905550817f2c90500f5a0e37f312128d28363dbc50008dce37edb0c7cf97f50e18c86221e260405160405180910390a2612255600761308e565b5050505050565b6000806122ac84848080601f016020809104026020016040519081016040528093929190818152602001838380828437600081840152601f19601f82011690508083019250505050505050612987565b9050600081116122f1576040517f08c379a00000000000000000000000000000000000000000000000000000000081526004016122e8906151db565b60405180910390fd5b600381141561230a5766b1a2bc2ec5000091505061232f565b600481141561232357666a94d74f43000091505061232f565b662386f26fc100009150505b92915050565b6123cd828260405160240161234b9291906151fb565b6040516020818303038152906040527f4b5c4277000000000000000000000000000000000000000000000000000000007bffffffffffffffffffffffffffffffffffffffffffffffffffffffff19166020820180517bffffffffffffffffffffffffffffffffffffffffffffffffffffffff83818316178352505050506130a4565b5050565b60007f01ffc9a7000000000000000000000000000000000000000000000000000000007bffffffffffffffffffffffffffffffffffffffffffffffffffffffff1916827bffffffffffffffffffffffffffffffffffffffffffffffffffffffff1916149050919050565b612444816130cd565b612483576040517f08c379a000000000000000000000000000000000000000000000000000000000815260040161247a90614824565b60405180910390fd5b50565b600033905090565b816004600083815260200190815260200160002060006101000a81548173ffffffffffffffffffffffffffffffffffffffff021916908373ffffffffffffffffffffffffffffffffffffffff160217905550808273ffffffffffffffffffffffffffffffffffffffff1661250183610e32565b73ffffffffffffffffffffffffffffffffffffffff167f8c5be1e5ebec7d5bd14f71427d1e84f3dd0314c0f7b2291e5b200ac8c7c3b92560405160405180910390a45050565b60008061255383610e32565b90508073ffffffffffffffffffffffffffffffffffffffff168473ffffffffffffffffffffffffffffffffffffffff16148061259557506125948185611d7c565b5b806125d357508373ffffffffffffffffffffffffffffffffffffffff166125bb84610801565b73ffffffffffffffffffffffffffffffffffffffff16145b91505092915050565b8273ffffffffffffffffffffffffffffffffffffffff166125fc82610e32565b73ffffffffffffffffffffffffffffffffffffffff1614612652576040517f08c379a0000000000000000000000000000000000000000000000000000000008152600401612649906152a4565b60405180910390fd5b600073ffffffffffffffffffffffffffffffffffffffff168273ffffffffffffffffffffffffffffffffffffffff1614156126c2576040517f08c379a00000000000000000000000000000000000000000000000000000000081526004016126b990615336565b60405180910390fd5b6126cf838383600161310e565b8273ffffffffffffffffffffffffffffffffffffffff166126ef82610e32565b73ffffffffffffffffffffffffffffffffffffffff1614612745576040517f08c379a000000000000000000000000000000000000000000000000000000000815260040161273c906152a4565b60405180910390fd5b6004600082815260200190815260200160002060006101000a81549073ffffffffffffffffffffffffffffffffffffffff02191690556001600360008573ffffffffffffffffffffffffffffffffffffffff1673ffffffffffffffffffffffffffffffffffffffff168152602001908152602001600020600082825403925050819055506001600360008473ffffffffffffffffffffffffffffffffffffffff1673ffffffffffffffffffffffffffffffffffffffff16815260200190815260200160002060008282540192505081905550816002600083815260200190815260200160002060006101000a81548173ffffffffffffffffffffffffffffffffffffffff021916908373ffffffffffffffffffffffffffffffffffffffff160217905550808273ffffffffffffffffffffffffffffffffffffffff168473ffffffffffffffffffffffffffffffffffffffff167fddf252ad1be2c89b69c2b068fc378daa952ba7f163c4a11628f55a4df523b3ef60405160405180910390a46128d18383836001613234565b505050565b60006002600083815260200190815260200160002060009054906101000a900473ffffffffffffffffffffffffffffffffffffffff169050919050565b61291c826130cd565b61295b576040517f08c379a0000000000000000000000000000000000000000000000000000000008152600401612952906153c8565b60405180910390fd5b806006600084815260200190815260200160002090805190602001906129829291906137f6565b505050565b60008060008084519050600092505b80821015612b315760008583815181106129b3576129b261463f565b5b602001015160f81c60f81b9050608060f81b817effffffffffffffffffffffffffffffffffffffffffffffffffffffffffffff19161015612a02576001836129fb91906153e8565b9250612b1d565b60e060f81b817effffffffffffffffffffffffffffffffffffffffffffffffffffffffffffff19161015612a4457600283612a3d91906153e8565b9250612b1c565b60f060f81b817effffffffffffffffffffffffffffffffffffffffffffffffffffffffffffff19161015612a8657600383612a7f91906153e8565b9250612b1b565b60f8801b817effffffffffffffffffffffffffffffffffffffffffffffffffffffffffffff19161015612ac757600483612ac091906153e8565b9250612b1a565b60fc60f81b817effffffffffffffffffffffffffffffffffffffffffffffffffffffffffffff19161015612b0957600583612b0291906153e8565b9250612b19565b600683612b1691906153e8565b92505b5b5b5b5b508280612b29906149b0565b935050612996565b829350505050919050565b8173ffffffffffffffffffffffffffffffffffffffff168373ffffffffffffffffffffffffffffffffffffffff161415612bab576040517f08c379a0000000000000000000000000000000000000000000000000000000008152600401612ba29061548a565b60405180910390fd5b80600560008573ffffffffffffffffffffffffffffffffffffffff1673ffffffffffffffffffffffffffffffffffffffff16815260200190815260200160002060008473ffffffffffffffffffffffffffffffffffffffff1673ffffffffffffffffffffffffffffffffffffffff16815260200190815260200160002060006101000a81548160ff0219169083151502179055508173ffffffffffffffffffffffffffffffffffffffff168373ffffffffffffffffffffffffffffffffffffffff167f17307eab39ab6107e8899845ad3d59bd9653f200f220920489ca2b5937696c3183604051612c9c919061394d565b60405180910390a3505050565b612cb48484846125dc565b612cc08484848461323a565b612cff576040517f08c379a0000000000000000000000000000000000000000000000000000000008152600401612cf69061551c565b60405180910390fd5b50505050565b606060405180602001604052806000815250905090565b6060612d278261243b565b6000612d31612d05565b90506000815111612d515760405180602001604052806000815250612d7c565b80612d5b84612d84565b604051602001612d6c929190614a2a565b6040516020818303038152906040525b915050919050565b606060006001612d93846133c2565b01905060008167ffffffffffffffff811115612db257612db1614081565b5b6040519080825280601f01601f191660200182016040528015612de45781602001600182028036833780820191505090505b509050600082602001820190505b600115612e51578080600190039150507f3031323334353637383961626364656600000000000000000000000000000000600a86061a8153600a8581612e3b57612e3a61553c565b5b0494506000851415612e4c57612e51565b612df2565b819350505050919050565b6060600082511415612e7f57604051806020016040528060008152509050612fbb565b600060405180606001604052806040815260200161580c6040913990506000600360028551612eae91906153e8565b612eb8919061556b565b6004612ec4919061559c565b67ffffffffffffffff811115612edd57612edc614081565b5b6040519080825280601f01601f191660200182016040528015612f0f5781602001600182028036833780820191505090505b509050600182016020820185865187015b80821015612f7b576003820191508151603f8160121c168501518453600184019350603f81600c1c168501518453600184019350603f8160061c168501518453600184019350603f8116850151845360018401935050612f20565b5050600386510660018114612f975760028114612faa57612fb2565b603d6001830353603d6002830353612fb2565b603d60018303535b50505080925050505b919050565b600081600001549050919050565b61306a84848484604051602401612fe894939291906155f6565b6040516020818303038152906040527f8eafb02b000000000000000000000000000000000000000000000000000000007bffffffffffffffffffffffffffffffffffffffffffffffffffffffff19166020820180517bffffffffffffffffffffffffffffffffffffffffffffffffffffffff83818316178352505050506130a4565b50505050565b61308a828260405180602001604052806000815250613515565b5050565b6001816000016000828254019250508190555050565b60008151905060006a636f6e736f6c652e6c6f679050602083016000808483855afa5050505050565b60008073ffffffffffffffffffffffffffffffffffffffff166130ef836128d6565b73ffffffffffffffffffffffffffffffffffffffff1614159050919050565b600181111561322e57600073ffffffffffffffffffffffffffffffffffffffff168473ffffffffffffffffffffffffffffffffffffffff16146131a25780600360008673ffffffffffffffffffffffffffffffffffffffff1673ffffffffffffffffffffffffffffffffffffffff168152602001908152602001600020600082825461319a919061515b565b925050819055505b600073ffffffffffffffffffffffffffffffffffffffff168373ffffffffffffffffffffffffffffffffffffffff161461322d5780600360008573ffffffffffffffffffffffffffffffffffffffff1673ffffffffffffffffffffffffffffffffffffffff168152602001908152602001600020600082825461322591906153e8565b925050819055505b5b50505050565b50505050565b600061325b8473ffffffffffffffffffffffffffffffffffffffff16613570565b156133b5578373ffffffffffffffffffffffffffffffffffffffff1663150b7a02613284612486565b8786866040518563ffffffff1660e01b81526004016132a694939291906156a5565b6020604051808303816000875af19250505080156132e257506040513d601f19601f820116820180604052508101906132df9190615706565b60015b613365573d8060008114613312576040519150601f19603f3d011682016040523d82523d6000602084013e613317565b606091505b5060008151141561335d576040517f08c379a00000000000000000000000000000000000000000000000000000000081526004016133549061551c565b60405180910390fd5b805181602001fd5b63150b7a0260e01b7bffffffffffffffffffffffffffffffffffffffffffffffffffffffff1916817bffffffffffffffffffffffffffffffffffffffffffffffffffffffff1916149150506133ba565b600190505b949350505050565b600080600090507a184f03e93ff9f4daa797ed6e38ed64bf6a1f0100000000000000008310613420577a184f03e93ff9f4daa797ed6e38ed64bf6a1f01000000000000000083816134165761341561553c565b5b0492506040810190505b6d04ee2d6d415b85acef8100000000831061345d576d04ee2d6d415b85acef810000000083816134535761345261553c565b5b0492506020810190505b662386f26fc10000831061348c57662386f26fc1000083816134825761348161553c565b5b0492506010810190505b6305f5e10083106134b5576305f5e10083816134ab576134aa61553c565b5b0492506008810190505b61271083106134da5761271083816134d0576134cf61553c565b5b0492506004810190505b606483106134fd57606483816134f3576134f261553c565b5b0492506002810190505b600a831061350c576001810190505b80915050919050565b61351f8383613593565b61352c600084848461323a565b61356b576040517f08c379a00000000000000000000000000000000000000000000000000000000081526004016135629061551c565b60405180910390fd5b505050565b6000808273ffffffffffffffffffffffffffffffffffffffff163b119050919050565b600073ffffffffffffffffffffffffffffffffffffffff168273ffffffffffffffffffffffffffffffffffffffff161415613603576040517f08c379a00000000000000000000000000000000000000000000000000000000081526004016135fa9061577f565b60405180910390fd5b61360c816130cd565b1561364c576040517f08c379a0000000000000000000000000000000000000000000000000000000008152600401613643906157eb565b60405180910390fd5b61365a60008383600161310e565b613663816130cd565b156136a3576040517f08c379a000000000000000000000000000000000000000000000000000000000815260040161369a906157eb565b60405180910390fd5b6001600360008473ffffffffffffffffffffffffffffffffffffffff1673ffffffffffffffffffffffffffffffffffffffff16815260200190815260200160002060008282540192505081905550816002600083815260200190815260200160002060006101000a81548173ffffffffffffffffffffffffffffffffffffffff021916908373ffffffffffffffffffffffffffffffffffffffff160217905550808273ffffffffffffffffffffffffffffffffffffffff16600073ffffffffffffffffffffffffffffffffffffffff167fddf252ad1be2c89b69c2b068fc378daa952ba7f163c4a11628f55a4df523b3ef60405160405180910390a46137ad600083836001613234565b5050565b6040518060a0016040528060608152602001600073ffffffffffffffffffffffffffffffffffffffff1681526020016060815260200160608152602001600081525090565b82805461380290614434565b90600052602060002090601f016020900481019282613824576000855561386b565b82601f1061383d57805160ff191683800117855561386b565b8280016001018555821561386b579182015b8281111561386a57825182559160200191906001019061384f565b5b509050613878919061387c565b5090565b5b8082111561389557600081600090555060010161387d565b5090565b6000604051905090565b600080fd5b600080fd5b60007fffffffff0000000000000000000000000000000000000000000000000000000082169050919050565b6138e2816138ad565b81146138ed57600080fd5b50565b6000813590506138ff816138d9565b92915050565b60006020828403121561391b5761391a6138a3565b5b6000613929848285016138f0565b91505092915050565b60008115159050919050565b61394781613932565b82525050565b6000602082019050613962600083018461393e565b92915050565b600081519050919050565b600082825260208201905092915050565b60005b838110156139a2578082015181840152602081019050613987565b838111156139b1576000848401525b50505050565b6000601f19601f8301169050919050565b60006139d382613968565b6139dd8185613973565b93506139ed818560208601613984565b6139f6816139b7565b840191505092915050565b60006020820190508181036000830152613a1b81846139c8565b905092915050565b6000819050919050565b613a3681613a23565b8114613a4157600080fd5b50565b600081359050613a5381613a2d565b92915050565b600060208284031215613a6f57613a6e6138a3565b5b6000613a7d84828501613a44565b91505092915050565b600073ffffffffffffffffffffffffffffffffffffffff82169050919050565b6000613ab182613a86565b9050919050565b613ac181613aa6565b82525050565b6000602082019050613adc6000830184613ab8565b92915050565b613aeb81613aa6565b8114613af657600080fd5b50565b600081359050613b0881613ae2565b92915050565b60008060408385031215613b2557613b246138a3565b5b6000613b3385828601613af9565b9250506020613b4485828601613a44565b9150509250929050565b600080fd5b600080fd5b600080fd5b60008083601f840112613b7357613b72613b4e565b5b8235905067ffffffffffffffff811115613b9057613b8f613b53565b5b602083019150836001820283011115613bac57613bab613b58565b5b9250929050565b60008060208385031215613bca57613bc96138a3565b5b600083013567ffffffffffffffff811115613be857613be76138a8565b5b613bf485828601613b5d565b92509250509250929050565b600082825260208201905092915050565b6000613c1c82613968565b613c268185613c00565b9350613c36818560208601613984565b613c3f816139b7565b840191505092915050565b613c5381613aa6565b82525050565b613c6281613a23565b82525050565b600060a0830160008301518482036000860152613c858282613c11565b9150506020830151613c9a6020860182613c4a565b5060408301518482036040860152613cb28282613c11565b91505060608301518482036060860152613ccc8282613c11565b9150506080830151613ce16080860182613c59565b508091505092915050565b60006020820190508181036000830152613d068184613c68565b905092915050565b600080600060608486031215613d2757613d266138a3565b5b6000613d3586828701613af9565b9350506020613d4686828701613af9565b9250506040613d5786828701613a44565b9150509250925092565b600060208284031215613d7757613d766138a3565b5b6000613d8584828501613af9565b91505092915050565b613d9781613a23565b82525050565b6000602082019050613db26000830184613d8e565b92915050565b60008060008060008060608789031215613dd557613dd46138a3565b5b600087013567ffffffffffffffff811115613df357613df26138a8565b5b613dff89828a01613b5d565b9650965050602087013567ffffffffffffffff811115613e2257613e216138a8565b5b613e2e89828a01613b5d565b9450945050604087013567ffffffffffffffff811115613e5157613e506138a8565b5b613e5d89828a01613b5d565b92509250509295509295509295565b6000613e7782613a86565b9050919050565b613e8781613e6c565b82525050565b6000602082019050613ea26000830184613e7e565b92915050565b613eb181613932565b8114613ebc57600080fd5b50565b600081359050613ece81613ea8565b92915050565b60008060408385031215613eeb57613eea6138a3565b5b6000613ef985828601613af9565b9250506020613f0a85828601613ebf565b9150509250929050565b600081519050919050565b600082825260208201905092915050565b6000819050602082019050919050565b600060a0830160008301518482036000860152613f5d8282613c11565b9150506020830151613f726020860182613c4a565b5060408301518482036040860152613f8a8282613c11565b91505060608301518482036060860152613fa48282613c11565b9150506080830151613fb96080860182613c59565b508091505092915050565b6000613fd08383613f40565b905092915050565b6000602082019050919050565b6000613ff082613f14565b613ffa8185613f1f565b93508360208202850161400c85613f30565b8060005b8581101561404857848403895281516140298582613fc4565b945061403483613fd8565b925060208a01995050600181019050614010565b50829750879550505050505092915050565b600060208201905081810360008301526140748184613fe5565b905092915050565b600080fd5b7f4e487b7100000000000000000000000000000000000000000000000000000000600052604160045260246000fd5b6140b9826139b7565b810181811067ffffffffffffffff821117156140d8576140d7614081565b5b80604052505050565b60006140eb613899565b90506140f782826140b0565b919050565b600067ffffffffffffffff82111561411757614116614081565b5b614120826139b7565b9050602081019050919050565b82818337600083830152505050565b600061414f61414a846140fc565b6140e1565b90508281526020810184848401111561416b5761416a61407c565b5b61417684828561412d565b509392505050565b600082601f83011261419357614192613b4e565b5b81356141a384826020860161413c565b91505092915050565b600080600080608085870312156141c6576141c56138a3565b5b60006141d487828801613af9565b94505060206141e587828801613af9565b93505060406141f687828801613a44565b925050606085013567ffffffffffffffff811115614217576142166138a8565b5b6142238782880161417e565b91505092959194509250565b600067ffffffffffffffff82111561424a57614249614081565b5b614253826139b7565b9050602081019050919050565b600061427361426e8461422f565b6140e1565b90508281526020810184848401111561428f5761428e61407c565b5b61429a84828561412d565b509392505050565b600082601f8301126142b7576142b6613b4e565b5b81356142c7848260208601614260565b91505092915050565b6000602082840312156142e6576142e56138a3565b5b600082013567ffffffffffffffff811115614304576143036138a8565b5b614310848285016142a2565b91505092915050565b60008060008060608587031215614333576143326138a3565b5b600085013567ffffffffffffffff811115614351576143506138a8565b5b61435d87828801613b5d565b9450945050602085013567ffffffffffffffff8111156143805761437f6138a8565b5b61438c878288016142a2565b925050604085013567ffffffffffffffff8111156143ad576143ac6138a8565b5b6143b9878288016142a2565b91505092959194509250565b600080604083850312156143dc576143db6138a3565b5b60006143ea85828601613af9565b92505060206143fb85828601613af9565b9150509250929050565b7f4e487b7100000000000000000000000000000000000000000000000000000000600052602260045260246000fd5b6000600282049050600182168061444c57607f821691505b602082108114156144605761445f614405565b5b50919050565b7f4552433732313a20617070726f76616c20746f2063757272656e74206f776e6560008201527f7200000000000000000000000000000000000000000000000000000000000000602082015250565b60006144c2602183613973565b91506144cd82614466565b604082019050919050565b600060208201905081810360008301526144f1816144b5565b9050919050565b7f4552433732313a20617070726f76652063616c6c6572206973206e6f7420746f60008201527f6b656e206f776e6572206f7220617070726f76656420666f7220616c6c000000602082015250565b6000614554603d83613973565b915061455f826144f8565b604082019050919050565b6000602082019050818103600083015261458381614547565b9050919050565b7f556e6b6e6f776e20646f6d61696e000000000000000000000000000000000000600082015250565b60006145c0600e83613973565b91506145cb8261458a565b602082019050919050565b600060208201905081810360008301526145ef816145b3565b9050919050565b600081905092915050565b600061460d83856145f6565b935061461a83858461412d565b82840190509392505050565b6000614633828486614601565b91508190509392505050565b7f4e487b7100000000000000000000000000000000000000000000000000000000600052603260045260246000fd5b7f4552433732313a2063616c6c6572206973206e6f7420746f6b656e206f776e6560008201527f72206f7220617070726f76656400000000000000000000000000000000000000602082015250565b60006146ca602d83613973565b91506146d58261466e565b604082019050919050565b600060208201905081810360008301526146f9816146bd565b9050919050565b600081905092915050565b50565b600061471b600083614700565b91506147268261470b565b600082019050919050565b600061473c8261470e565b9150819050919050565b7f4661696c656420746f2077697468647261772062616c616e63652066726f6d2060008201527f636f6e7472616374000000000000000000000000000000000000000000000000602082015250565b60006147a2602883613973565b91506147ad82614746565b604082019050919050565b600060208201905081810360008301526147d181614795565b9050919050565b7f4552433732313a20696e76616c696420746f6b656e2049440000000000000000600082015250565b600061480e601883613973565b9150614819826147d8565b602082019050919050565b6000602082019050818103600083015261483d81614801565b9050919050565b7f4552433732313a2061646472657373207a65726f206973206e6f74206120766160008201527f6c6964206f776e65720000000000000000000000000000000000000000000000602082015250565b60006148a0602983613973565b91506148ab82614844565b604082019050919050565b600060208201905081810360008301526148cf81614893565b9050919050565b60008190508160005260206000209050919050565b600081546148f881614434565b6149028186614700565b9450600182166000811461491d576001811461492e57614961565b60ff19831686528186019350614961565b614937856148d6565b60005b838110156149595781548189015260018201915060208101905061493a565b838801955050505b50505092915050565b600061497682846148eb565b915081905092915050565b7f4e487b7100000000000000000000000000000000000000000000000000000000600052601160045260246000fd5b60006149bb82613a23565b91507fffffffffffffffffffffffffffffffffffffffffffffffffffffffffffffffff8214156149ee576149ed614981565b5b600182019050919050565b6000614a0482613968565b614a0e81856145f6565b9350614a1e818560208601613984565b80840191505092915050565b6000614a3682856149f9565b9150614a4282846149f9565b91508190509392505050565b7f2e00000000000000000000000000000000000000000000000000000000000000600082015250565b6000614a846001836145f6565b9150614a8f82614a4e565b600182019050919050565b60008190508160005260206000209050919050565b60008154614abc81614434565b614ac681866145f6565b94506001821660008114614ae15760018114614af257614b25565b60ff19831686528186019350614b25565b614afb85614a9a565b60005b83811015614b1d57815481890152600182019150602081019050614afe565b838801955050505b50505092915050565b6000614b3b828587614601565b9150614b4682614a77565b9150614b528284614aaf565b9150819050949350505050565b6000614b6b8286614aaf565b9150614b7782856149f9565b9150614b838284614aaf565b9150819050949350505050565b7f7b226e616d65223a202200000000000000000000000000000000000000000000600082015250565b6000614bc6600a836145f6565b9150614bd182614b90565b600a82019050919050565b7f222c20226465736372697074696f6e223a20224120646f6d61696e206f6e207460008201527f6865204c6f7665204e616d652053657276696365222c2022696d616765223a2060208201527f22646174613a696d6167652f7376672b786d6c3b6261736536342c0000000000604082015250565b6000614c5e605b836145f6565b9150614c6982614bdc565b605b82019050919050565b7f222c226c656e677468223a220000000000000000000000000000000000000000600082015250565b6000614caa600c836145f6565b9150614cb582614c74565b600c82019050919050565b7f222c000000000000000000000000000000000000000000000000000000000000600082015250565b6000614cf66002836145f6565b9150614d0182614cc0565b600282019050919050565b7f2261747472696275746573223a205b0000000000000000000000000000000000600082015250565b6000614d42600f836145f6565b9150614d4d82614d0c565b600f82019050919050565b7f7b2274726169745f74797065223a202257656273697465222c202276616c756560008201527f223a202200000000000000000000000000000000000000000000000000000000602082015250565b6000614db46024836145f6565b9150614dbf82614d58565b602482019050919050565b7f227d2c0000000000000000000000000000000000000000000000000000000000600082015250565b6000614e006003836145f6565b9150614e0b82614dca565b600382019050919050565b7f7b2274726169745f74797065223a2022456d61696c222c202276616c7565223a60008201527f2022000000000000000000000000000000000000000000000000000000000000602082015250565b6000614e726022836145f6565b9150614e7d82614e16565b602282019050919050565b7f227d000000000000000000000000000000000000000000000000000000000000600082015250565b6000614ebe6002836145f6565b9150614ec982614e88565b600282019050919050565b7f5d00000000000000000000000000000000000000000000000000000000000000600082015250565b6000614f0a6001836145f6565b9150614f1582614ed4565b600182019050919050565b7f7d00000000000000000000000000000000000000000000000000000000000000600082015250565b6000614f566001836145f6565b9150614f6182614f20565b600182019050919050565b6000614f7782614bb9565b9150614f8382886149f9565b9150614f8e82614c51565b9150614f9a82876149f9565b9150614fa582614c9d565b9150614fb182866149f9565b9150614fbc82614ce9565b9150614fc782614d35565b9150614fd282614da7565b9150614fde82856149f9565b9150614fe982614df3565b9150614ff482614e65565b915061500082846149f9565b915061500b82614eb1565b915061501682614efd565b915061502182614f49565b91508190509695505050505050565b7f646174613a6170706c69636174696f6e2f6a736f6e3b6261736536342c000000600082015250565b6000615066601d836145f6565b915061507182615030565b601d82019050919050565b600061508782615059565b915061509382846149f9565b915081905092915050565b60006150aa8385613973565b93506150b783858461412d565b6150c0836139b7565b840190509392505050565b600060208201905081810360008301526150e681848661509e565b90509392505050565b7f496e73756666696369656e742066756e64732072656365697665640000000000600082015250565b6000615125601b83613973565b9150615130826150ef565b602082019050919050565b6000602082019050818103600083015261515481615118565b9050919050565b600061516682613a23565b915061517183613a23565b92508282101561518457615183614981565b5b828203905092915050565b7f496e76616c6964206c656e677468000000000000000000000000000000000000600082015250565b60006151c5600e83613973565b91506151d08261518f565b602082019050919050565b600060208201905081810360008301526151f4816151b8565b9050919050565b6000604082019050818103600083015261521581856139c8565b9050818103602083015261522981846139c8565b90509392505050565b7f4552433732313a207472616e736665722066726f6d20696e636f72726563742060008201527f6f776e6572000000000000000000000000000000000000000000000000000000602082015250565b600061528e602583613973565b915061529982615232565b604082019050919050565b600060208201905081810360008301526152bd81615281565b9050919050565b7f4552433732313a207472616e7366657220746f20746865207a65726f2061646460008201527f7265737300000000000000000000000000000000000000000000000000000000602082015250565b6000615320602483613973565b915061532b826152c4565b604082019050919050565b6000602082019050818103600083015261534f81615313565b9050919050565b7f45524337323155524953746f726167653a2055524920736574206f66206e6f6e60008201527f6578697374656e7420746f6b656e000000000000000000000000000000000000602082015250565b60006153b2602e83613973565b91506153bd82615356565b604082019050919050565b600060208201905081810360008301526153e1816153a5565b9050919050565b60006153f382613a23565b91506153fe83613a23565b9250827fffffffffffffffffffffffffffffffffffffffffffffffffffffffffffffffff0382111561543357615432614981565b5b828201905092915050565b7f4552433732313a20617070726f766520746f2063616c6c657200000000000000600082015250565b6000615474601983613973565b915061547f8261543e565b602082019050919050565b600060208201905081810360008301526154a381615467565b9050919050565b7f4552433732313a207472616e7366657220746f206e6f6e20455243373231526560008201527f63656976657220696d706c656d656e7465720000000000000000000000000000602082015250565b6000615506603283613973565b9150615511826154aa565b604082019050919050565b60006020820190508181036000830152615535816154f9565b9050919050565b7f4e487b7100000000000000000000000000000000000000000000000000000000600052601260045260246000fd5b600061557682613a23565b915061558183613a23565b9250826155915761559061553c565b5b828204905092915050565b60006155a782613a23565b91506155b283613a23565b9250817fffffffffffffffffffffffffffffffffffffffffffffffffffffffffffffffff04831182151516156155eb576155ea614981565b5b828202905092915050565b6000608082019050818103600083015261561081876139c8565b9050818103602083015261562481866139c8565b9050818103604083015261563881856139c8565b90506156476060830184613d8e565b95945050505050565b600081519050919050565b600082825260208201905092915050565b600061567782615650565b615681818561565b565b9350615691818560208601613984565b61569a816139b7565b840191505092915050565b60006080820190506156ba6000830187613ab8565b6156c76020830186613ab8565b6156d46040830185613d8e565b81810360608301526156e6818461566c565b905095945050505050565b600081519050615700816138d9565b92915050565b60006020828403121561571c5761571b6138a3565b5b600061572a848285016156f1565b91505092915050565b7f4552433732313a206d696e7420746f20746865207a65726f2061646472657373600082015250565b6000615769602083613973565b915061577482615733565b602082019050919050565b600060208201905081810360008301526157988161575c565b9050919050565b7f4552433732313a20746f6b656e20616c7265616479206d696e74656400000000600082015250565b60006157d5601c83613973565b91506157e08261579f565b602082019050919050565b60006020820190508181036000830152615804816157c8565b905091905056fe4142434445464748494a4b4c4d4e4f505152535455565758595a6162636465666768696a6b6c6d6e6f707172737475767778797a303132333435363738392b2f5265676973746572696e672025732e2573206f6e2074686520636f6e7472616374207769746820746f6b656e4944202573a264697066735822122065b17e6d2b28bababb85cc9eae00c8dc6f51847f43a035b3bec36c4bc27a77f064736f6c634300080a00333c73766720786d6c6e733d22687474703a2f2f7777772e77332e6f72672f323030302f737667222077696474683d2232373022206865696768743d22323730222066696c6c3d226e6f6e65223e3c706174682066696c6c3d2275726c282342292220643d224d302030683237307632373048307a222f3e3c646566733e3c66696c7465722069643d22412220636f6c6f722d696e746572706f6c6174696f6e2d66696c746572733d2273524742222066696c746572556e6974733d227573657253706163654f6e55736522206865696768743d22323730222077696474683d22323730223e3c666544726f70536861646f772064783d2230222064793d22312220737464446576696174696f6e3d22322220666c6f6f642d6f7061636974793d222e323235222077696474683d223230302522206865696768743d2232303025222f3e3c2f66696c7465723e3c2f646566733e3c7061746820643d224d37322e3836332034322e393439632d2e3636382d2e3338372d312e3432362d2e35392d322e3139372d2e3539732d312e3532392e3230342d322e3139372e35396c2d31302e30383120362e3033322d362e383520332e3933342d31302e30383120362e303332632d2e3636382e3338372d312e3432362e35392d322e3139372e3539732d312e3532392d2e3230342d322e3139372d2e35396c2d382e3031332d342e37323161342e353220342e35322030203020312d312e3538392d312e363136632d2e3338342d2e3636352d2e3539342d312e3431382d2e3630382d322e313837762d392e3331632d2e3031332d2e3737352e3138352d312e3533382e3537322d322e32303861342e323520342e323520302030203120312e3632352d312e3539356c372e3838342d342e3539632e3636382d2e33383720312e3432362d2e353920322e3139372d2e353973312e3532392e32303420322e3139372e35396c372e38383420342e353961342e353220342e353220302030203120312e35383920312e363136632e3338342e3636352e35393420312e3431382e36303820322e31383776362e3033326c362e38352d342e303635762d362e303332632e3031332d2e3737352d2e3138352d312e3533382d2e3537322d322e32303861342e323520342e32352030203020302d312e3632352d312e3539354c34312e3435362032342e3539632d2e3636382d2e3338372d312e3432362d2e35392d322e3139372d2e3539732d312e3532392e3230342d322e3139372e35396c2d31342e38363420382e36353561342e323520342e32352030203020302d312e36323520312e353935632d2e3338372e36372d2e35383520312e3433342d2e35373220322e3230387631372e343431632d2e3031332e3737352e31383520312e3533382e35373220322e32303861342e323520342e323520302030203020312e36323520312e3539356c31342e38363420382e363535632e3636382e33383720312e3432362e353920322e3139372e353973312e3532392d2e32303420322e3139372d2e35396c31302e3038312d352e39303120362e38352d342e3036352031302e3038312d352e393031632e3636382d2e33383720312e3432362d2e353920322e3139372d2e353973312e3532392e32303420322e3139372e35396c372e38383420342e353961342e353220342e353220302030203120312e35383920312e363136632e3338342e3636352e35393420312e3431382e36303820322e31383776392e333131632e3031332e3737352d2e31383520312e3533382d2e35373220322e32303861342e323520342e32352030203020312d312e36323520312e3539356c2d372e38383420342e373231632d2e3636382e3338372d312e3432362e35392d322e3139372e3539732d312e3532392d2e3230342d322e3139372d2e35396c2d372e3838342d342e353961342e353220342e35322030203020312d312e3538392d312e363136632d2e3338352d2e3636352d2e3539342d312e3431382d2e3630382d322e313837762d362e3033326c2d362e383520342e30363576362e303332632d2e3031332e3737352e31383520312e3533382e35373220322e32303861342e323520342e323520302030203020312e36323520312e3539356c31342e38363420382e363535632e3636382e33383720312e3432362e353920322e3139372e353973312e3532392d2e32303420322e3139372d2e35396c31342e3836342d382e363535632e3635372d2e33393420312e3230342d2e393520312e3538392d312e363136732e3539342d312e3431382e3630392d322e3138375635352e353338632e3031332d2e3737352d2e3138352d312e3533382d2e3537322d322e32303861342e323520342e32352030203020302d312e3632352d312e3539356c2d31342e3939332d382e3738367a222066696c6c3d2223666666222f3e3c646566733e3c6c696e6561724772616469656e742069643d2242222078313d2230222079313d2230222078323d22323730222079323d2232373022206772616469656e74556e6974733d227573657253706163654f6e557365223e3c73746f702073746f702d636f6c6f723d2223424134333433222f3e3c73746f70206f66667365743d22302e37222073746f702d636f6c6f723d2223313930423238222073746f702d6f7061636974793d222e3939222f3e3c2f6c696e6561724772616469656e743e3c2f646566733e3c7465787420783d2232322e352220793d223233312220666f6e742d73697a653d223232222066696c6c3d2223666666222066696c7465723d2275726c282341292220666f6e742d66616d696c793d22506c7573204a616b617274612053616e732c44656a6156752053616e732c4e6f746f20436f6c6f7220456d6f6a692c4170706c6520436f6c6f7220456d6f6a692c73616e732d73657269662220666f6e742d7765696768743d22626f6c64223e",
  "linkReferences": {},
  "deployedLinkReferences": {}
}